:020000040800F2
:10000000480E002439030008172E0008912A000822
:10001000152E00085D060008053E000800000000DF
:10002000000000000000000000000000A1330008F4
:100030005F06000800000000192E0008A333000826
:100040005303000853030008530300085303000838
:100050005303000853030008530300085303000828
:100060005303000853030008530300085303000818
:100070005303000853030008530300085303000808
:1000800053030008530300085303000853030008F8
:1000900053030008530300085303000853030008E8
:1000A00053030008530300085303000853030008D8
:1000B00053030008530300085303000853030008C8
:1000C00053030008530300085303000853030008B8
:1000D00053030008530300085303000853030008A8
:1000E00053030008530300080000000053030008F6
:1000F0005303000853030008530300085303000888
:100100005303000853030008530300085303000877
:100110005303000853030008513500085303000837
:100120005303000853030008530300085303000857
:100130005303000853030008530300085303000847
:1001400000000000000000000000000000000000AF
:100150005303000853030008530300085303000827
:100160005303000853030008530300085303000817
:100170005303000853030008530300080000000065
:1001800053030008530300085303000853030008F7
:1001900053030008530300085303000853030008E7
:1001A00053030008530300085303000853030008D7
:1001B00053030008530300085303000853030008C7
:1001C00053030008530300085303000853030008B7
:1001D00053030008530300085303000853030008A7
:1001E0005303000853030008530300085303000897
:1001F0005303000853030008530300085303000887
:100200005303000853030008530300085303000876
:100210005303000853030008530300085303000866
:1002200053030008530300085303000800000000B4
:1002300053030008530300080000000053030008A4
:100240005303000853030008530300085303000836
:100250005303000853030008530300085303000826
:100260005303000853030008530300085303000816
:100270005303000853030008530300080000000064
:100280005303000853030008530300080000000054
:10029000000000005303000800F002F800F03CF8F2
:1002A0000AA090E8000C82448344AAF10107DA45D1
:1002B00001D100F031F8AFF2090EBAE80F0013F0E7
:1002C000010F18BFFB1A43F001031847C43C00009C
:1002D000E43C0000103A24BF78C878C1FAD852072D
:1002E00024BF30C830C144BF04680C6070470000B0
:1002F0000023002400250026103A28BF78C1FBD82F
:10030000520728BF30C148BF0B6070471FB503F0CC
:1003100005FE1FBD10B510BD00F0CFF81146FFF768
:10032000F5FF03F081FD00F0EDF803B4FFF7F2FFF5
:1003300003BC00F0F5F80000094880470948004771
:10034000FEE7FEE7FEE7FEE7FEE7FEE7FEE7FEE785
:10035000FEE7FEE704480549054A064B70470000E2
:100360006D3400089902000848080024480E002453
:10037000480A0024480A002453EA020C00F069806D
:100380002DE9F04B4FF00006002B1FBFB3FA83F5A9
:1003900003FA05F424FA05F65E4012BF1643B2FADA
:1003A00082F502FA05F4C5F120051EBF22FA05FC0C
:1003B00044EA0C04203556EA044C4FEA144418BFB2
:1003C000641C4FF000084FF00009904271EB030CE1
:1003D00039D3002919BFB1FA81F701FA07F6B0FA4B
:1003E00080F700FA07F6C7F120071EBF20FA07FCC6
:1003F00046EA0C062037B6FBF4FCA7EB0507103FD6
:1004000007F01F0BCBF120060CFA0BFB2CFA06F6BB
:1004100044BFB3460026202FA4BF5E464FF0000B1A
:100420005BEA060C08BF4FF0010B19EB0B09ABFBA5
:10043000027C48EB0608C01B06FB02CC0BFB03CC7E
:1004400071EB0C01C1E70B46024641464846BDE848
:10045000F08B13B54FF000004FF00001AFF30080B8
:10046000BDE81C4070474FF0000200B513469446AB
:100470009646203922BFA0E80C50A0E80C50B1F1FC
:100480002001BFF4F7AF090728BFA0E80C5048BF10
:100490000CC05DF804EB890028BF40F8042B08BFAE
:1004A000704748BF20F8022B11F0804F18BF00F8AA
:1004B000012B7047704770477047754600F02CF865
:1004C000AE4605006946534620F00700854618B041
:1004D00020B5FFF73FFFBDE820404FF000064FF08A
:1004E00000074FF000084FF0000B21F00701AC4669
:1004F000ACE8C009ACE8C009ACE8C009ACE8C00988
:100500008D46704710B50446AFF300802046BDE825
:100510001040FFF70ABF000000487047E4070024BE
:1005200001491820ABBEFEE726000200704700001C
:1005300010B5064C01221102204600F0ABF9012251
:100540002046BDE81040510200F0A4B9000802584E
:100550002DE9F04115000E46074610D05FF000046B
:1005600031462246384605EB440300F00AF80028DD
:1005700003D1641CE4B2082CF2D3BDE8F081012061
:10058000FBE72DE9FC4106004FF000001D468846C0
:10059000ADF80400ADF8000002D00DB1082A02D376
:1005A0000120BDE8FC8102F00F004FF4C05141EA88
:1005B000C01741460022304600F06CF901A93846C8
:1005C00000F014F8040004D16946384600F00EF833
:1005D000044641460122304600F05CF924B9BDF8DA
:1005E0000000C0F30B0028802046DAE703B583B093
:1005F0000020ADF8040001B901A96420009004486E
:1006000001230A4603A901F0E3FD05B000BD000087
:10061000E40400244FF4807102460148FFF798BFBC
:10062000000802580B46024602484FF48071FFF75B
:10063000A8BF0000000802584FF4007102460148AC
:10064000FFF786BF000802580B46024602484FF4E7
:100650000071FFF796BF000000080258FEE77047E0
:1006600072B6FEE72DE9FC4F01257E4C00234FF0CA
:10067000030A4FF0B04E4FF00F0BEBE005FA03F614
:1006800037403A0077D04F68012F05D0022F03D0B2
:10069000112F01D0122F1AD187684FEA4308D1F8E1
:1006A0000CC00AFA08F927EA09070CFA08FC4CEA18
:1006B000070CC0F808C0476891F804C0B743CCF3F2
:1006C000001C0CFA03FC4CEA070CC0F804C0C66816
:1006D0004FEA430CD1F80880E1460AFA0CF7BE4312
:1006E000019708FA09F848EA0608C0F80C804E6835
:1006F000022E01D0122E12D1DE084FEA437C00EB0D
:10070000860600960F69366A4FEADC6C0BFA0CF825
:1007100007FA0CF726EA08063743009E37620E797F
:100720000768DDF804C006F0030606FA09F627EAB2
:100730000C073E4306604E68F6001CD54A4E3768EB
:1007400047F00207376036689F0706F002060096FA
:1007500023F0030606F1B046B1463F0FD6F8086411
:10076000DFF808810BFA07FC404526EA0C0603D1A6
:100770004FF0000C41E06CE0DFF8F4C0604502D1BE
:100780004FF0010C39E0DFF8ECC0604502D14FF0CA
:10079000020C32E0DFF8E0C0604502D14FF0030CFC
:1007A0002BE0DFF8D8C0604502D14FF0040C24E004
:1007B000DFF8CCC0604502D14FF0050C1DE0DFF83A
:1007C000C4C0604502D14FF0060C16E0DFF8B8C097
:1007D000604502D14FF0070C0FE0DFF8B0C0604574
:1007E00002D14FF0080C08E0DFF8A4C0604502D148
:1007F0004FF0090C01E04FF00A0C0CFA07FC4CEA30
:10080000060CC9F808C426684F6826EA0206FF03EA
:1008100000D51643266066684F6826EA0206BF03C5
:1008200000D516436660D1F804C07646DEF8007045
:100830005FEACC2C27EA020700D517433760D1F8CE
:1008400004C077685FEA8C2C27EA020700D51743BB
:1008500077605B1C0A681746DA407FF40FAFBDE88B
:10086000FC8F000080000058F44402580000025839
:100870000004025800080258000C025800100258E8
:100880000014025800180258001C02580020025898
:10089000002402580AB1816170470904FBE7000097
:1008A00001480068000C70470010005C0148806837
:1008B000704700001000002402488168027811444B
:1008C0008160704710000024032010B500F0ACF8E0
:1008D00001F03CF80F4A104914681368C4F303226E
:1008E00003F00F038A5CC95C02F01F0201F01F01D4
:1008F000D0400A4A20FA01F111600949086000203D
:1009000000F010F808B1012010BD00F051F80020EF
:1009100010BD000018440258803F00082000002449
:100920001C00002410B5102804468AB02CD20022E6
:100930000146362000F058F8362000F047F81748F6
:1009400004601748016841F010010160006809A9BE
:1009500000F010000890684600F084FF0598B0B1E0
:1009600000F0D0FF40000F4900220F4CB0FBF1F126
:100970000E4840F2E7330460C0E90332491EC0E983
:10098000011201F0B8FD28B101200AB010BD00F03D
:10099000B9FFE8E7054801F0E1FDF6E7140000249F
:1009A000E844025840420F0000100040980700241D
:1009B000054808B5016841F002010160006800F0D7
:1009C0000200009008BD0000F4440258002809DB32
:1009D000410900F01F028900012001F1E02190404F
:1009E000C1F80001704700000E4BF0B41B680D46C3
:1009F000C3F30223C3F10706042E00D90426191DF0
:100A0000072901D2002300E0DB1E012404FA06F1CD
:100A10009C40491E2940641E994014402143F0BC6B
:100A200003F0F1B90CED00E0064900F0070210B543
:100A30004FF6FF040868044B204040EA02201843A8
:100A4000086010BD0CED00E00000FA05134970B518
:100A50000A68D243520705D5096801F007018142AF
:100A600013D118E00A6822F0070202430A60FFF778
:100A70001DFF0A4D4FF47A760446083D07E000BF9B
:100A8000FFF714FF001BB04201D9012070BD286898
:100A9000C0438004F4D4002070BD00000C4802580C
:100AA00010B500F00DFF05490968054AC1F30211B0
:100AB000515C01F01F01C84010BD000020440258E5
:100AC000803F0008494930B5484C0B1D0A68143472
:100AD00009681D68246802F00303C5F30012C1F31E
:100AE0000531C4F3CC04002914FB02F200EE102AF5
:100AF000F8EE400A75D03F4A9FED3D1AB7EE000A66
:100B00006BB1DFED3D1A012B01D0022B64D002EE58
:100B1000101A1168F8EE422A81EEA22A21E0334C25
:100B2000283C23689B0612D5344B246801EE901AAA
:100B30001168C4F3C104F8EE612AE34001EE903A73
:100B4000C1F30801F8EE611A81EEA22A0BE001EE72
:100B5000901ADFED2B2A00BFF8EE611A116882EEC1
:100B6000A12AC1F3080101EE901A1168F8EE611A8A
:100B700040EE811A71EE800A62EE200AC1F346212E
:100B800001EE101AB8EE411A31EE001AC0EE811AC9
:100B9000BCEEE11A80ED001A1168C1F3064101EEC6
:100BA000101AB8EE411A31EE001AC0EE811ABCEEEE
:100BB000E11A80ED011A1168C1F3066101EE101A05
:100BC000B8EE411A31EE000A80EE801ABCEEC10A7E
:100BD00080ED020A30BD04E001EE901ADFED092A33
:100BE000BAE70021016041608160F3E728440258C0
:100BF00000000039384402580024744A0090D003A1
:100C00000024744C20BCBE4B494930B5484C0B1DE8
:100C10000A681C3409681D68246802F00303C5F3E0
:100C20000022C1F30551C4F3CC04002914FB02F2E5
:100C300000EE102AF8EE400A75D03F4A9FED3D1AAB
:100C4000B7EE000A6BB1DFED3D1A012B01D0022B8C
:100C500064D002EE101A1168F8EE422A81EEA22A40
:100C600021E0334C283C23689B0612D5344B246882
:100C700001EE901A1168C4F3C104F8EE612AE34052
:100C800001EE903AC1F30801F8EE611A81EEA22A52
:100C90000BE001EE901ADFED2B2A00BFF8EE611A8F
:100CA000116882EEA12AC1F3080101EE901A1168C1
:100CB000F8EE611A40EE811A71EE800A62EE200AA7
:100CC000C1F3462101EE101AB8EE411A31EE001AB6
:100CD000C0EE811ABCEEE11A80ED001A1168C1F372
:100CE000064101EE101AB8EE411A31EE001AC0EEBC
:100CF000811ABCEEE11A80ED011A1168C1F3066198
:100D000001EE101AB8EE411A31EE000A80EE801A98
:100D1000BCEEC10A80ED020A30BD04E001EE901A7B
:100D2000DFED092ABAE70021016041608160F3E745
:100D30002844025800000039404402580024744AF4
:100D40000090D0030024744C20BCBE4B2DE9FC5F06
:100D5000044650F8241B002500902E460801FE4F43
:100D6000DFF8F8831DD5606E50B1B0F5801F0CD050
:100D7000B0F5001F0ED0B0F5401F1DD001250FE0CB
:100D8000386840F40030386016E00221201D02F07F
:100D900045F803E00098022102F0D0F805000BD0DE
:100DA0002E462088C00523D5606D05281ED2DFE8B9
:100DB00000F00C11161B1B00626ED8F8001021F415
:100DC00040111143C8F80010EBE7386840F40030D8
:100DD000386009E00021201D02F020F803E00098AF
:100DE000002102F0ABF805466DB100E001252E466A
:100DF0002088800528D5A06D80281ED00CDC90B1FD
:100E000040280ED114E0626DD8F8001021F00701DF
:100E10001143C8F80010EBE7C02813D0B0F5807F6D
:100E200010D001250FE0386840F40030386009E048
:100E30000021201D01F0F2FF03E00098002102F0E4
:100E40007DF8054695B12E462088DFF810934005C1
:100E500009F108092CD5D4F8A400B0F5800F20D0F2
:100E60000DDCA0B1B0F5001F0FD115E0A26DD8F8D0
:100E7000001021F4E0711143C8F80010E4E7B0F568
:100E8000C00F13D0B0F5000F10D001250FE0386867
:100E900040F40030386009E00021201D01F0BEFF61
:100EA00003E00098002102F049F8054675B12E468E
:100EB000208800052DD5D4F8A800B0F1007F21D0FE
:100EC0000EDCA8B1B0F1807F10D116E0D4F8A420D8
:100ED000D9F8001021F460011143C9F80010E7E7C8
:100EE000B0F1407F13D0B0F1806F10D001250FE03A
:100EF000386840F40030386009E00021201D01F01E
:100F00008DFF03E00098002102F018F805466DB14E
:100F10002E46206880011FD5A06CD8B110280FD0B4
:100F2000202812D0302815D0012514E0D4F8A820AC
:100F3000D9F8001021F0E0611143C9F80010E8E78A
:100F4000386840F40030386004E00221201D01F0D0
:100F500065FF05466DB12E462088C0042BD5E06D97
:100F6000B0F5005F20D00DDCA0B1B0F5805F0FD1EF
:100F700015E07A48A26C001F016821F0300111438E
:100F80000160E9E7B0F5405F13D0B0F5804F10D0B5
:100F900001250FE0386840F40030386009E0002196
:100FA000201D01F03BFF03E00098002101F0C6FF87
:100FB000054685B12E462088800429D5206EB0F5DF
:100FC000403F23D010DC08B3B0F5803F14D0B0F51B
:100FD000003F0FD115E0E26DD8F8001021F4E04198
:100FE0001143C8F80010E6E7B0F5802F0ED0B0F539
:100FF000A02F0BD001250AE00121201D01F00EFFDA
:1010000003E00098012101F099FF05468DB12E46BD
:10101000208840042AD5D4F8AC00B0F1405F23D03A
:1010200010DC08B3B0F1805F14D0B0F1005F0FD1D5
:1010300015E0226ED8F8001021F4E0211143C8F821
:101040000010E5E7B0F1804F0ED0B0F1A04F0BD00B
:1010500001250AE00121201D01F0E0FE03E00098D7
:10106000012101F06BFF05466DB12E46208800047A
:101070001FD5E06ED8B1B0F1805F0ED0B0F1005F47
:1010800010D0012514E0D4F8AC20D9F8001021F0DC
:10109000E0411143C9F80010E8E7386840F4003037
:1010A000386004E00121201D01F0B8FE05466DB155
:1010B0002E462068C0011ED5606CD0B101280ED02C
:1010C000022811D0032814D0012513E0E26ED8F8CD
:1010D000001021F040511143C8F80010E9E73868CA
:1010E00040F40030386004E00221201D01F096FE3B
:1010F000054685B12E462068DFF85CB04002ABF1B2
:101100001C0B57D51648016841F480710160FFF748
:10111000CDFB82460EE01148626C001F016821F091
:10112000030111430160E6E7FFF7C0FBA0EB0A00F3
:1011300064283DD80A480068C005F5D57DBBDFF8B6
:101140001CA0B4F8B0100AF1200ADAF8000001F48B
:10115000407100F4407005E02C440258504402589D
:1011600000480258884211D0DAF80010DAF800205E
:1011700021F4407142F48032CAF80020DAF80020ED
:1011800022F48032CAF80020CAF80010D4F8B00067
:10119000B0F5807F21D1FFF789FB019019E008E0CD
:1011A000FFF784FB0199411A41F28830814210D93E
:1011B00003252E462078DFF830A4C0073DD0A06F6D
:1011C000182838D026DC80B3082829D0102825D14B
:1011D0002CE0DAF800008007E2D5D4F8B010C1F3B3
:1011E0000120032858460DD0016821F47C5101608C
:1011F000B4F8B020DAF80010C2F30B021143CAF8B9
:101200000010D7E7F94A036802EA111223F47C516F
:101210001143ECE720280ED028280CD001250BE044
:101220000121201D01F0FAFD04E004E000980121F5
:1012300001F084FE05465DB12E46207880071ED55C
:10124000606F062819D2DFE800F0160C111616168A
:10125000A26FDAF8001021F038011143CAF800102B
:10126000EBE70121201D01F0D9FD03E000980121E9
:1012700001F064FE054675B100E001252E46207898
:1012800040071FD5D4F89000062819D2DFE800F0F7
:10129000160C11161616626FDAF8001021F007010D
:1012A0001143CAF80010EAE70121201D01F0B6FD44
:1012B00003E00098012101F041FE05469DB100E0E8
:1012C00001252E46207880062BD5D4F88C00B0F16D
:1012D000405F24D011DC10B3B0F1805F15D0B0F1C5
:1012E000005F10D116E0D4F89020D9F8001021F05A
:1012F00007011143C9F80010E4E7B0F1804F0ED0A8
:10130000B0F1A04F0BD001250AE00021201D01F013
:1013100085FD03E00098022101F010FE05468DB125
:101320002E46207840062BD5D4F89800B0F5406FB3
:1013300024D011DC10B3B0F5806F15D0B0F5006F7C
:1013400010D116E0D4F88C20DAF8001021F0E0413A
:101350001143CAF80010E4E7B0F5805F0ED0B0F595
:10136000A05F0BD001250AE00021201D01F056FDF1
:1013700003E00098022101F0E1FD05468DB12E4603
:10138000207800062BD5D4F89C00B0F5C04F24D0AF
:1013900011DC10B3B0F5005F15D0B0F5804F10D15F
:1013A00016E0D4F89820D9F8001021F4E051114348
:1013B000C9F80010E4E7B0F5004F0ED0B0F5204FAB
:1013C0000BD001250AE00021201D01F027FD03E0DC
:1013D0000098022101F0B2FD05464DB12E4620785D
:1013E00000071ED5D4F88000B0F5805F0AD00FE06A
:1013F000D4F89C20D9F8001021F460411143C9F8B9
:101400000010ECE70098022101F098FD00B10126E0
:10141000D4F88020DAF8001021F440511143CAF8C2
:1014200000102078C00613D5D4F89400B0F5807F62
:1014300005D10098022101F081FD00B10126D4F808
:101440009420D9F8001021F440711143C9F800101C
:101450002068000316D5D4F8A00038B1B0F5803F5D
:1014600009D0B0F5003F0BD001250AE00021201D76
:1014700001F0D4FC03E00098022101F05FFD054675
:1014800085B12E462068400322D5D4F88400B0F5FB
:10149000801F11D0B0F5001F13D0B0F5401F15D03C
:1014A000012514E0D4F8A020D9F8001021F440312F
:1014B0001143C9F80010E5E7386840F4003038609F
:1014C00004E00098012101F039FD054655B12E4692
:1014D0002068C0031CD5E06C70B1B0F5803F10D01F
:1014E000012514E0D4F88420DAF8001021F440112A
:1014F0001143CAF80010EBE7386840F40030386058
:1015000004E00221201D01F089FC0546CDB12E46E4
:101510002068800005D50098022101F00FFD00B180
:101520000126206880031BD5E06FB8B1B0F5807F3D
:1015300010D0B0F5007F11D0B0F5407F0ED001255E
:101540000DE02948E26C0838016821F4803111432C
:101550000160DDE7386840F400303860F5B32E46AE
:101560002068C00207D5226FD8F8001021F0004192
:101570001143C8F800102068C00008D5D4F8B42082
:10158000DBF8001021F480411143CBF800102068F3
:10159000800207D5A26ED8F8001021F080711143A7
:1015A000C8F80010206840000CD5DBF8001021F4CA
:1015B0000041CBF80010DBF80010D4F8B82011433C
:1015C000CBF800102068002807DA0748226D083899
:1015D000016821F040511143016000E008E086B14C
:1015E0000120BDE8FC9F000054440258CFFFFF00DB
:1015F000E26FDAF8001021F440711143CAF80010CC
:10160000AEE70020EDE700002DE9F05F04000F4693
:101610007ED0DFF83882D8F8000000F00F00B84222
:101620000CD2D8F8001021F00F013943C8F800108F
:10163000D8F8000000F00F00B84269D12078844D3E
:1016400040070AD52069296801F07001884204D951
:10165000296821F070010143296020787C4E361DF5
:1016600000070AD56069316801F07001884204D929
:10167000316821F07001014331602078C0060AD53D
:10168000A069316801F4E061884204D9316821F42D
:10169000E061014331602078DFF8B4B180060BF1DE
:1016A000080B0CD5E1695846DBF8002002F0700207
:1016B000914204D9026822F070020A430260207845
:1016C00080070AD5E068296801F00F01884204D933
:1016D000296821F00F01014329602078C0073ED01E
:1016E0005B49A2682868183920F4706010432860AC
:1016F0006068022818D0032819D00968012819D079
:10170000490700294ADADFF848A1AAF1080A00E0EF
:1017100044E0DAF8002022F007020243CAF8002071
:10172000FFF7C4F8814612E009688903E9E7096810
:101730008901E6E7C905E4E7FFF7B8F8A0EB09017E
:1017400041F28830814202D90320BDE8F09F6168F0
:10175000DAF8000000F03800B0EBC10FECD12078CF
:1017600080070AD5E068296801F00F01884204D299
:10177000296821F00F0101432960D8F80010404684
:1017800001F00F01B9420BD9016821F00F01394373
:101790000160006800F00F00B84201D00120D4E7DA
:1017A000207840070AD52069296801F07001884235
:1017B00004D2296821F070010143296020780007D4
:1017C0000AD56069316801F07001884204D231683D
:1017D00021F07001014331602078C0060AD5A0696C
:1017E000316801F4E061884204D2316821F4E0619B
:1017F00001433160207880060CD5E1695846DBF85A
:10180000002002F07002914204D2026822F07002BD
:101810000A43026000F09AF80E492A682B68C2F366
:10182000032203F00F038A5CC95C02F01F0201F07F
:101830001F01D040084A20FA01F1116007490860F1
:1018400007480068BDE8F05FFFF76CB80020005261
:1018500018440258803F0008200000241C00002487
:101860001400002470B5144C3F220260124A246810
:101870000832131D114D04F00704446016681C1D46
:1018800006F470668660166806F00F06C660126879
:1018900002F0700202611A6802F0700242611A6876
:1018A00002F4E0628261226802F07002C26128687C
:1018B00000F00F00086070BD104402580020005274
:1018C00030B500F043F80B4A0B490C4B156814680F
:1018D000C5F3032204F00F048A5C095D02F01F02C5
:1018E00001F01F01D040064A20FA01F11960106092
:1018F000084630BD18440258803F000820000024EC
:101900001C00002400B5FFF7DBFF05490968054A04
:10191000C1F30211515C01F01F01C84000BD00007D
:101920001C440258803F000800B5FFF7C9FF054975
:101930000968054AC1F30221515C01F01F01C8404A
:1019400000BD00001C440258803F0008454970B5A6
:1019500045480968434B103B11F0380208D001118B
:10196000082A03D0102A0BD0182A0BD0084670BDC5
:1019700019688906FBD51968C1F3C101C84070BD5B
:101980003A4870BD3749374D18310C1D24350A6867
:10199000096826682D6802F0030406F00102C1F30D
:1019A0000511C5F3CC0515FB02F200EE102AB8EEC6
:1019B000400AE9B32F4ADFED2E0AB7EE001A6CB1E8
:1019C000DFED2D1A012C01D0022C43D002EE101AAB
:1019D0001068F8EE422A81EEA22A1EE01C68A406D6
:1019E00011D51B6801EE901A1168C3F3C103F8EE1C
:1019F000612AD84001EE900AC1F30800F8EE611A9E
:101A000081EEA22A0BE001EE901ADFED1C2A00BF46
:101A1000F8EE611A106882EEA12AC0F3080001EE08
:101A2000900AF8EE611A40EE201A31EE810A00E0C9
:101A300015E022EE000A1068C0F34620401C00EEBC
:101A4000900AF8EE600A80EE201ABCEEC10A10EE91
:101A5000100A70BD01EE901ADFED092AD8E70020C8
:101A600070BD0000104402580090D00340787D0102
:101A700000000039304402580024744A0024744C99
:101A800020BCBE4B2DE9F05F04007CD0FF4F2078D6
:101A9000FE4D1837DFF8F493103DC00748D0D9F851
:101AA0000000396800F03800102815D0182803D13C
:101AB00001F0030002280FD06068B0F5803F12D01B
:101AC00010B1B0F5A02F18D0286820F4803028601D
:101AD000286820F4802009E02868800328D5606801
:101AE0000028D2D024E0286840F480302860606864
:101AF00088B1FEF7DBFE064609E0286840F4802046
:101B00002860F0E7FEF7D2FE801B64287ED82868A4
:101B10008003F7D50CE0FEF7C9FE064605E000BFDE
:101B2000FEF7C4FE801B6428F0D828688003F7D431
:101B3000207841F20308D54E0C3E800753D5D9F8E2
:101B40000000396810F038000ED0182801D188073D
:101B50000AD0E068A8B3296821F01901014329607F
:101B6000FEF7A4FE82461BE02868400702D5E06825
:101B700000288AD0FEF794FE40451BD820694028F3
:101B800012D0316800E0CCE021F47C3141EA003031
:101B9000306028E0FEF78AFEA0EB0A000228B5D8E4
:101BA00028684007F6D5E5E7306820F47C3040F43B
:101BB0000030EDE7207C316821F0FE4141EA006011
:101BC000E6E7FFE7286820F001002860FEF76EFED8
:101BD000824605E0FEF76AFEA0EB0A00022895D8CF
:101BE00028684007F6D42078C0065FD5D9F80000F1
:101BF000DFF898B2396800F03800ABF1040B082820
:101C000012D0182805D101F0030000E0EAE0012815
:101C10000AD0E0690028286838D040F080002860A9
:101C2000FEF744FE824623E02868C00523D5E0691C
:101C3000802876D11FE0206A202821D0316821F049
:101C4000F84141EA8060306030E000BF94F8201035
:101C5000DBF8002022F07C5242EA0161CBF8001050
:101C600024E000BFFEF722FEA0EB0A00022896D86F
:101C70002868C005F6D5FEF713FE4045E6D8DAE73A
:101C8000306820F0F84040F08040DCE720F0800031
:101C90002860FEF70BFE064605E000BFFEF706FED5
:101CA000801B02289BD82868C005F7D4207800073D
:101CB00029D576486169643000298046016811D0D1
:101CC00041F001010160FEF7F1FD064605E000BFAD
:101CD000FEF7ECFD801B0228C9D8D8F80000800769
:101CE000F6D510E021F001010160FEF7DFFD0646A8
:101CF00005E000BFFEF7DAFD801B022872D8D8F895
:101D000000008007F6D42078800623D5A06900283B
:101D1000286810D040F480502860FEF7C7FD0646C2
:101D200005E02CE1FEF7C2FD801B02285AD8286886
:101D30008004F7D50EE020F480502860FEF7B6FD51
:101D4000064604E0FEF7B2FD801B02284AD8286848
:101D50008004F7D4207840074FD5DFF83481D8F8D5
:101D6000001041F48071C8F80010FEF79FFD064690
:101D700005E000BFFEF79AFD801B642832D8D8F832
:101D80000000C005F6D5414EA068603601280AD093
:101D900008B1052813D0306820F0010030603068A9
:101DA00020F0040002E0306840F001003060A068DC
:101DB00041F2883A90B1FEF779FD80460AE030683A
:101DC00040F004003060EEE7FEF770FDA0EB080184
:101DD000514507D830688007F6D50EE0FEF766FD5E
:101DE000804607E084E000BFFEF760FDA0EB08013D
:101DF00051457DD830688007F6D4606AF0B3DFF8CB
:101E00008C80D9F8001008F12008C1F3C201032921
:101E10006FD00228286820F08070286003D0FEF779
:101E200045FD044680E0FEF741FD064605E000BFA3
:101E3000FEF73CFD801B022873D828688001F7D488
:101E4000E26A40F2F331386854F8283F884340EAA8
:101E5000021018433860217B4FF4FE0C22894FF0AA
:101E6000FE47208A4902267D521E401EA1F50071C0
:101E700089B20CEA0040C2F3080200E081E011439D
:101E8000761E0143014807EA066203E01044025847
:101E9000004802581C3011433B4AC8F80010016842
:101EA00021F00101016011684FF6F876236AB14311
:101EB00041EAC30111600168A26921F00C011143DC
:101EC00001600168E26921F00201114301600168CB
:101ED00041F480310160016841F400310160016822
:101EE00041F480210160016841F00101016001E0DD
:101EF00017E01DE0286840F080702860FEF7D6FCEF
:101F0000044604E0FEF7D2FC001B022809D828682A
:101F10008001F7D535E000BFFEF7C8FC001B0228A2
:101F200002D90320BDE8F09F28688001F4D428E09E
:101F300039680128D8F8000021D0A26A01F0030313
:101F400093421CD1E26AC1F305118A4217D1216B79
:101F5000C0F30802491E8A4211D1616BC0F34622C8
:101F6000491E91420BD1A16BC0F30642491E91421A
:101F700005D1E16BC0F30660491E814201D001200A
:101F8000D0E70020CEE70000344402582DE9F047A6
:101F9000040029D04A4A4FF000092068494B4A4DB5
:101FA0009042C4F8289006D0984204D0A84202D0AB
:101FB000E1680F2918D8E1684FF0010AE76B083192
:101FC000C9080AEB57167143904205D0984203D0D6
:101FD000A84201D0082907D8904203D0984201D0E6
:101FE000A84204D1102902D90120BDE8F08794F855
:101FF000810020B9204684F8809000F067F8022024
:1020000084F881002068016821F001010160A06965
:10201000B0F1806F0AD16068B0F5800F06D1A06B77
:1020200020B92068016841F480510160A56AE06927
:102030002368E16B2843E268084310439860D4E9C1
:102040000D02D4E905C1636A25691843D4F82080DC
:102050000A43266810432843A56DD4E90172D4E9E8
:10206000123140EA0C0040EA0800384308431043AC
:1020700018432843F060606868B92068816821F4DB
:10208000C05141F4006181602068816821F4C06121
:1020900041F4806181602068016D21F001010165DA
:1020A0006068400206D52068626DC16821F0004179
:1020B0001143C160C4F8849084F881A0002094E7A3
:1020C0000030014000380040003C0040F0B587B0CF
:1020D000074614216846FEF7C6F9364900253B68D5
:1020E0000224DFF8D4C00839324A032633480527D2
:1020F000634525D1136843F480431360126802F4EA
:10210000804205920A6842F004020A600A6802F0FE
:10211000040205920A6842F002020A60096801ABF3
:10212000009401F00201CDE9047183E87000694672
:10213000FEF798FA700369468DE8F10020481AE02E
:10214000DFF880C063451AD1136843F4004313607D
:10215000126802F4004205920A6842F004020A6022
:1021600009680622049201F0040105914FF4E05140
:102170008DE872006946FEF775FA07B0F0BD1248A7
:102180008342FAD10B480830026842F400520260E0
:10219000006800F400500590086840F010000860E6
:1021A0000868694600F01000059024208DE8F100D1
:1021B0000648E0E7E84402580038004000080258AA
:1021C00000040258003C0040003401400010025856
:1021D0002DE9FF4F83B090F8801004460068012974
:1021E0004FF00001109F1D46019100F1200100F108
:1021F000300093460291009014D04FF0010A84F809
:1022000080A0FEF753FB804694F8810063680021AC
:1022100001282E464FF480020CD0934208D1A368C7
:1022200033B903E0022007B0BDE8F08F042801D0E5
:10223000022037E0049898B3BBF1000F31D07DB392
:1022400094F88100042802D0052084F88100894692
:102250000846C4F88410C4F864B0A4F86A50A4F81E
:1022600068500499E165A4F86250A4F860502067B2
:102270006067206841686FF30F012943416020685F
:10228000016841F0010101606068904204D120685A
:10229000016841F400710160E0680F2835D846E01C
:1022A000FFE7012084F88010BDE7206841698907B5
:1022B0000DD565B1E16D09680162E06D001DE06555
:1022C000B4F86200401EA4F86200B4F8625048F20C
:1022D00008022068416911420DD066B1006B616E41
:1022E0000860606E001D6066B4F86A00401EA4F8C5
:1022F0006A00B4F86A60FEF7D9FAA0EB0800B842A9
:1023000002D3781C01D004E01FB155EA0600CCD1FD
:10231000D2E0204600F03CFFD4F8842084F880907E
:1023200042F48071C4F8841084F881A0DCE00728AE
:102330004DD8BEE02068416989071CD5DDB1012D6B
:102340000BD9E16B49B1E16D09680162E06D001DD7
:10235000E065B4F86200801E09E0E06D0188029833
:102360000180E06D801CE065B4F86200401EA4F8B6
:102370006200B4F862502068416911F4604F1BD0CC
:10238000D6B14169090409D5006B616E0860606EC1
:10239000001D6066B4F86A00801E09E0009800889D
:1023A000616E0880606E801C6066B4F86A00401E32
:1023B000A4F86A00B4F86A60FEF778FAA0EB0800A7
:1023C000B84202D3781C02D0A3E7002FA1D055EA6F
:1023D0000600AFD170E02068416989072CD55DB354
:1023E000032D0CD9E16B40290BD9E16D096801621D
:1023F000E06D001DE065B4F86200001F18E0012DDB
:102400000CD9E16B51B1E06D018802980180E06D5B
:10241000801CE065B4F86200801E09E0E16D097877
:1024200080F82010E06D401CE065B4F86200401EAA
:10243000A4F86200B4F862502068416911F4604F5A
:102440002CD05EB34169090409D5006B616E086048
:10245000606E001D6066B4F86A00001F1AE04169F2
:1024600001F4C041B1F5005F0AD900980088616E9F
:102470000880606E801C6066B4F86A00801E09E007
:1024800090F83000616E0870606E401C6066B4F8B1
:102490006A00401EA4F86A00B4F86A60FEF706FA03
:1024A000A0EB0800B84202D3781C02D031E7002F1D
:1024B0008AD055EA06008ED10022434608212046E4
:1024C000009700F0C3FE28B1D4F8840040F020004B
:1024D000C4F88400204600F05BFE84F881A0D4F8A4
:1024E000841084F8809009B101209CE601989AE656
:1024F00070477047704710B5040003D094F83D0052
:1025000010B107E0012010BD002084F83C002046F7
:1025100000F022F8022084F83D002068211D01F01F
:102520001DF8012084F8480084F83E0084F83F003C
:1025300084F8400084F8410084F8420084F84300A5
:1025400084F8440084F8450084F8460084F8470085
:1025500084F83D00002010BD7047000090F83D1049
:10256000012901D0012070470B4A022180F83D105B
:102570000168CB6843F00103CB60006881681140BB
:10258000062906D0B1F5803F03D0016841F0010172
:10259000016000207047000007000100704770B51F
:1025A0000446006800250169C943890715D4C1683C
:1025B000C943890711D4EA1E0261012121772068ED
:1025C00080698007204602D0FFF7E8FF04E000F0B2
:1025D000A7F8204600F0A5F8257720680169C943CF
:1025E000490717D4C168C943490713D402216FF0C2
:1025F0000402026121772068806910F4407F204640
:1026000002D0FFF7CBFF04E000F08AF8204600F08C
:1026100088F8257720680169C943090716D4C1687D
:10262000C943090712D404216FF00802026121771F
:102630002068C0698007204602D0FFF7AFFF04E0A2
:1026400000F06EF8204600F06CF8257720680169EC
:10265000C943C90617D4C168C943C90613D40821A0
:102660006FF01002026121772068C06910F4407F8A
:10267000204602D0FFF792FF04E000F051F8204618
:1026800000F04FF8257720680169C943C90708D1D0
:10269000C168C943C90704D1891E0161204600F001
:1026A00041F820680169C943090609D4C168C943D2
:1026B000090605D46FF0800101612046FFF719FF7C
:1026C00020680169C943C90509D4C168C94309061D
:1026D00005D46FF4807101612046FFF709FF20687F
:1026E0000169C943490609D4C168C943490605D4EB
:1026F0006FF040010161204600F01EF8206801697A
:10270000C94389060BD4C168C943890607D46FF051
:10271000200101612046BDE87040FFF7EBBE70BDAF
:102720007047704700680349884201D1FEF7C4B87A
:102730007047000000100040704730B590F87C10E2
:10274000012918D0012280F87C202421C0F88010B3
:102750000022202450F8601B0B680D6823F0005302
:1027600025F001050D60426050F8601C0B600462AA
:102770000277104630BD022030BD70B5044690F897
:102780007C0001281DD0012284F87C202420C4F87C
:10279000800020680568026822F00102026020685B
:1027A000826822F060620A438260204600F038FFAF
:1027B0002268202100201560C4F8801084F87C0075
:1027C00070BD022070BD70B5044690F87C000128F1
:1027D0001DD0012284F87C202420C4F880002068C9
:1027E0000568026822F0010202602068826822F017
:1027F00060420A438260204600F012FF22682021D6
:1028000000201560C4F8801084F87C0070BD0220A0
:1028100070BD10B5040003D0D4F8800010B107E0FB
:10282000012010BD002084F87C00204600F026F82E
:102830002420C4F880002068016821F001010160B3
:10284000204601F0B5F80128EBD0A06A10B120466F
:1028500000F018FF2068416821F490414160206831
:10286000816821F02A0181602068016841F001013E
:1028700001602046BDE8104000F068BFF0B587B0A9
:10288000044614216846FDF7EEFD266800213C4809
:1028900002243A4A0725864223D13848103003687B
:1028A00043F010030360006800F01000059010680A
:1028B00040F001001060106800F0010005904FF436
:1028C000C0600090CDE90141CDE903152D4869466E
:1028D000FDF7C8FE002205212520FEF785F82520FA
:1028E00024E0264B284808338642284822D11E6817
:1028F00046F400361E601B6803F40033059313682A
:1029000043F008031360126802F008020592602287
:102910000092CDE90141CDE903156946FDF7A2FE1C
:10292000002205212620FEF75FF82620FEF74EF84C
:1029300007B0F0BD164FBE42FAD11E6846F480269D
:102940001E601B6803F480230593136843F008039B
:102950001360126802F0080205924FF44072009270
:10296000CDE90141CDE903156946FDF77BFE002263
:1029700005212720FEF738F82720D7E7E044025842
:10298000001001400000025800440040000C0258B2
:102990000048004070B5D0F88430202B6CD1B9B11C
:1029A000B2B190F87C30012B66D08468012580F8A4
:1029B0007C50002381652E03C366B442A0F85C20DE
:1029C000A0F85E204FF0FF0107D1046914B11DE0AB
:1029D000012070BD40F2FF1118E04FF07F059CB15F
:1029E000B4F1805F15D0A0F860302221C0F88830A3
:1029F000C0F8841001688C6844F001048C60416E5A
:102A0000B1F1005F0CD025E0046934B9A0F8601082
:102A1000EBE7016909B13F21F8E7A0F86050E4E76E
:102A2000B0F86810914215D88168B14201D10169AE
:102A300071B11249C16680F87C3001680A6842F4BD
:102A400080720A600068816841F0805181600FE007
:102A50000B49EFE78168B14201D1016951B10949E0
:102A6000C16680F87C300068016841F490710160B3
:102A7000002070BD0449F3E7022070BD0D39000845
:102A800009380008AD380008AB37000800F056BB25
:102A9000FEE700002DE9F04F87B014216846FDF7EE
:102AA000E2FC4348016841F010010160016801F057
:102AB00010010591016841F080010160016801F099
:102AC00080010591016841F004010160016801F095
:102AD00004010591016841F002010160016801F003
:102AE00002010591016841F008010160016801F0EF
:102AF00008010591016841F00101016000680022B0
:102B0000DFF8B0A0182100F0010005905046FDF755
:102B1000C1FEDFF8A4B04FF41046002231465846FB
:102B2000FDF7B8FE4FF48067244800223946FDF7D0
:102B3000B1FE4FF44078224801224146FDF7AAFE3B
:102B40004FF400691F4800224946FDF7A3FE002408
:102B500069461820009001255046CDE901540394A0
:102B6000FDF780FD00966946CDE90154584603946F
:102B7000FDF778FD00976946CDE901540F480394AD
:102B8000FDF770FDCDF800806946CDE901540C4891
:102B90000394FDF767FDCDF800906946CDE9015437
:102BA00008480394FDF75EFD07B0BDE8F08F000014
:102BB000E04402580010025800040258000C025869
:102BC000000802580000025870B515480F224FF453
:102BD0008005124E00212C01C0E90212016173042C
:102BE000C0E90514C0E90731416222018162C16276
:102BF000C0E90D21C163016441648164C164016560
:102C000041658165C0E90065FFF7C0F9002803D080
:102C1000BDE87040FDF724BD70BD000000380040E5
:102C20005C04002470B515480F224FF48005124E45
:102C300000212C01C0E9021201614FF0C043C0E93C
:102C40000514C0E90731416222018162C162C0E915
:102C50000D21C163016441648164C1640165416502
:102C60008165C0E90065FFF791F9002803D0BDE850
:102C70007040FDF7F5BC70BD003C0040E40400244A
:102C800070B515480F244FF48005124E00212B011A
:102C9000C0E9021401614FF0A042C0E90513C0E988
:102CA000072141628162C16241638163C163016442
:102CB00041648164C164016541658165C0E9006565
:102CC000FFF764F9002803D0BDE87040FDF7C8BCE9
:102CD00070BD0000003401406C050024184800213C
:102CE00010B5164C0C224FF4E1330460C0E90131F9
:102CF000C160C0E904128161C16101624162816207
:102D0000FFF787FD08B1FDF7ABFC0D480021FFF789
:102D10005AFD08B1FDF7A4FC09480021FFF72DFD7D
:102D200008B1FDF79DFC0648FFF707FD002803D01A
:102D3000BDE81040FDF794BC10BD0000001001403C
:102D4000F40500241848002110B5164C0C224FF44D
:102D5000E1330460C0E90131C160C0E9041281615E
:102D6000C161016241628162FFF753FD08B1FDF765
:102D700077FC0D480021FFF726FD08B1FDF770FC38
:102D800009480021FFF7F9FC08B1FDF769FC064886
:102D9000FFF7D3FC002803D0BDE81040FDF760BC6E
:102DA00010BD0000004400408006002418480021A7
:102DB00010B5164C0C224FF4E1330460C0E9013128
:102DC000C160C0E904128161C16101624162816236
:102DD000FFF71FFD08B1FDF743FC0D480021FFF789
:102DE000F2FC08B1FDF73CFC09480021FFF7C5FCE7
:102DF00008B1FDF735FC0648FFF79FFC002803D01B
:102E0000BDE81040FDF72CBC10BD0000004800409C
:102E10000C070024FEE7FEE7704700002DE9F047AD
:102E2000454D044689464FF0000A2868C043800794
:102E30000AD0414E283E306820F080603060FDF7B7
:102E400035FD0746B04608E00120BDE8F08700BF29
:102E5000FDF72CFDC01B022867D8D8F80000000140
:102E6000F6D4206829684FF4FE0721F47C313E0235
:102E700041EA00302860207AA389B4F804C04002F7
:102E80002D4D2D495B1E227CACF1010C1035091D26
:102E9000A0F5007080B2521ECCF3080C07EA034381
:102EA00040EA0C00184306EA0262104328600868F2
:102EB000626920F0C000104308600A68A06922F02F
:102EC000200202430A60281D0A6822F010020A60EC
:102ED00002684FF6F873E4699A4342EAC40202605A
:102EE0000868B9F1000F40F010020A6011D00868BC
:102EF000B9F1010F11D040F400100860D8F80000BB
:102F0000444640F08060C8F80000FDF7CFFC05465D
:102F10000DE0086840F40020EFE740F48010ECE793
:102F2000FDF7C4FC401B022801D903208DE720686F
:102F30000001F5D5504688E7284402582DE9F047AE
:102F4000454D044689464FF0000A2868C043800773
:102F50000AD0414E283E306820F080503060FDF7A6
:102F6000A5FC0746B04608E00120BDE8F08700BF99
:102F7000FDF79CFCC01B022867D8D8F80000800031
:102F8000F6D4208829684FF4FE0721F07C713E02B8
:102F900041EA00502860207AA389B4F804C04002B6
:102FA0002D4D2D495B1E227CACF1010C1835091DFD
:102FB000A0F5007080B2521ECCF3080C07EA034360
:102FC00040EA0C00184306EA0262104328600868D1
:102FD000626920F44060104308600A68A06922F426
:102FE000007202430A60281D0A6822F480720A6097
:102FF00002684FF6F873E4699A4342EAC402026039
:103000000868B9F1000F40F480720A6011D00868B6
:10301000B9F1010F11D040F080700860D8F80000BD
:10302000444640F08050C8F80000FDF73FFC0546DC
:103030000DE0086840F48000EFE740F40000ECE7A2
:10304000FDF734FC401B022801D903208DE72068DE
:103050008000F5D5504688E728440258074A0146C3
:103060005FF0000000EB400352F823308B4204D0A5
:10307000401CC0B20228F5D302207047503F000820
:1030800070B50C4E00252C4604EB440106EB810084
:1030900026F8215045808580C5808572204600F045
:1030A00011F8641CE4B2022CEED3BDE8704000F0CD
:1030B00035B8000024000024401C80B2884200D3B0
:1030C00000207047074900EB400001EB8000817A47
:1030D000012901D0012200E0002201894068FDF7AA
:1030E000D9BB0000503F000810B50228044601D3A8
:1030F000012010BDFFF7E6FF074A04EB4400054935
:1031000001EB800152F820000122BDE81040083197
:10311000FFF740BC24000024503F000870B5002594
:103120002C462046FFF7E0FF10B1022800D00546EC
:10313000641CE4B2022CF4D3284670BD2DE9F041A2
:103140000746FFF78BFF02281DD0104900EB400215
:10315000054601EB8204267A20884FF48071FFF740
:10316000ABFF6188814206D02188084A183202EB01
:1031700005228E54208004F108013846BDE8F04154
:103180000122FFF707BCBDE8F08100002400002405
:1031900010B5026840F26F335169946944F0080435
:1031A00094610268946944F01004946102681468A0
:1031B00024F001041460026814699C4314610268DD
:1031C000936823F44043936090F88120042A0CD044
:1031D0008A060AD5D0F8842042F08002C0F8842004
:1031E0000268936943F02003936190F88120032AD9
:1031F0000CD04A060AD5D0F8842042F00402C0F868
:1032000084200268936943F0400393618A050AD5DC
:10321000D0F8842042F00102C0F88420026893694B
:1032200043F400739361C9050AD5D0F8841041F0C6
:103230000801C0F8841001688A6942F480728A61CA
:103240000021A0F86210A0F86A1010BD2DE9F0412D
:10325000984616460D460746069C09E0FDF726FBF4
:10326000A0EB0800A04202D3601C01D00BE054B1D7
:103270003868406935EA000007D00020B042EDD040
:103280000020BDE8F0810320FBE70120F6E70020E5
:1032900010B500F061F8BDE81040012000F05CB806
:1032A0002DE9FC4117000D464FF0000402D00DB18E
:1032B000202D02D90120BDE8FC8105F10F010E0986
:1032C0006946324600F018F80028F4D1694605E056
:1032D00031F81020401C80B242EA0444B042F7D3D7
:1032E000202D06D20120C5EB0611A840CC40401E7F
:1032F00004403C600020DEE72DE9FE4302289846AA
:1033000014460D46064603D215B10CB1042C02D961
:103310000120BDE8FE8300224FF6FF7101AB174686
:1033200005E023F81210501C25F8127082B2A24258
:10333000F7D3304600F010F8064906EB8600CDF8CA
:10334000008023462A4651F8200001A9FEF740FFDD
:10335000DFE70000283F0008022810B510D2094915
:1033600000EB8000012201EB800421896068FDF7F9
:1033700091FA218A0022E068BDE81040FDF78ABA80
:1033800010BD0000283F000864230A4601460020C3
:10339000FFF786BF64230A4601460120FFF780BF7E
:1033A0007047704770B5CCB04C212FA8FDF75BF883
:1033B000202142A8FDF757F8BC216846FDF753F8D5
:1033C0000220FDF743FB274800242749026842F406
:1033D0004042026002680A6842F001020A6009681D
:1033E00001F001014A9101688904FCD50DF1E40C5A
:1033F0000523C026022038908CE849003C9008251F
:103400003D90C2033E900121CDE93F5441942FA845
:10341000CDE92F12FEF736FB08B172B6FEE7402069
:103420003F210301CDE945500322CDE9470342ABDB
:10343000499042A883E816000421FEF7E5F808B198
:1034400072B6FEE743F2030018941E9417941D947D
:1034500000906846FDF77AFC002801D072B6FEE7BE
:103460004CB070BD184802582C0400582E48F0B5D6
:103470002E4A016841F470010160106800F00F00ED
:10348000072804D2106820F00F00C01D10602849E2
:103490000020274C10340B68264D43F001030B60CD
:1034A00020600B682B400B60136803F00F03072BA1
:1034B00004D9136823F00F03DB1D13601C4C1E4A54
:1034C00018341E4B261D371D2060194C1C4D283406
:1034D0003060261D3860371D23603B1D35601C1D84
:1034E0003A60251D2E1D1860331D22602860326051
:1034F00018600A680E4B134C22F4802260330A6075
:10350000186020686FF30F00B0F1005F03D20E491E
:103510000120C1F8080143F2D2000C49024B4A03D2
:10352000803B08601A60F0BD88ED00E0002000528A
:10353000004402587FEDF6EA800201010002020217
:103540000000FF010010005C0080005100400052AC
:103550000148FFF724B80000980700242DE9F04740
:10356000274B4FF0804A274D02689842264E274F3E
:10357000274C09D0504507D0A84205D0B04203D00F
:10358000B84201D0A04205D1D1F804C022F07002A7
:103590004CEA0202DFF87CC0DFF87C809842DFF85A
:1035A0007C900FD050450DD0A8420BD0B04209D02E
:1035B000B84207D0A04205D0604503D0404501D0B5
:1035C000484503D1CD6822F440722A434D6922F068
:1035D00080022A43026098428A68C2620A68826254
:1035E00007D0A04205D0604503D0404501D04845F2
:1035F00001D10969016301214161BDE8F087000043
:10360000000001400004004000080040000C0040A1
:1036100000040140004001400044014000480140D6
:103620003FB514A1D1E9002314A1CDE90023D1E9CC
:103630000021CDE90221416EB9B1016802AC8A686E
:103640008968C2F34262490F1DF80150615C2D0187
:10365000B5FBF1F1A0F86A101DF80210A25C090197
:10366000B1FBF2F1A0F868103FBD0121A0F86A108B
:10367000F8E700000101010307010000080402044B
:103680000801010190F82810C90706D00168C36A33
:103690004A6822F400321A434A6090F828108907D9
:1036A00006D50168036B4A6822F480321A434A60E7
:1036B00090F82810490706D50168436B4A6822F440
:1036C00080221A434A6090F82810090706D501683D
:1036D000836B4A6822F400421A434A6090F828102B
:1036E000C90606D50168C36B8A6822F480521A4362
:1036F0008A6090F82810890606D50168036C8A68EC
:1037000022F400521A438A6090F82810490611D515
:103710000168436C4A6822F480121A434A60416C83
:10372000B1F5801F06D10168836C4A6822F4C0029B
:103730001A434A6090F82810090606D50168C26C41
:10374000486820F40020104348607047F8B5002610
:103750000446C0F88860FDF7A9F8054620686FF0B8
:103760007E470068000708D500222B464FF4001161
:103770002046009700F0F4FA60B92068006840071E
:103780000AD500222B464FF480012046009700F016
:10379000E7FA08B10320F8BD2020C4F8800084F8BF
:1037A0007C60C4F884000020F8BD10B5D0F8841007
:1037B000B0F860202229016804D0886940F0080030
:1037C000886110BD496A836D11401980816D891C23
:1037D0008165B0F85E10491EA0F85E10B0F85E106A
:1037E0000029EED10168202200230C6824F4907493
:1037F0000C6001688C6824F001048C60C0F884209F
:10380000C366FFF743F910BD2DE9F0410446D0F837
:1038100084002228B4F8606006D02068816941F0F5
:1038200008018161BDE8F081B4F8685023E02068A8
:10383000A16D406A30400880A06D801CA065B4F87E
:103840005E00401EA4F85E00B4F85E0088B92068EF
:10385000202214490023076827F480770760206836
:1038600087680F408760C4F884202046E366FFF72E
:103870000DF96D1EADB2002DD9D1B4F85E0000284F
:10388000D0D0B4F868108142CCD92068816821F08A
:10389000805181600448E0662068016841F02001A1
:1038A0000160BFE7FEFFFFEFAB37000810B5D0F8AF
:1038B0008410B0F860202229016804D0886940F0A3
:1038C0000800886110BD496A836D11401970816DCF
:1038D000491C8165B0F85E10491EA0F85E10B0F872
:1038E0005E100029EED10168202200230C6824F428
:1038F00090740C6001688C6824F001048C60C0F83E
:103900008420C366FFF7C2F810BD00002DE9F04126
:103910000446D0F884002228B4F8606006D02068FD
:10392000816941F008018161BDE8F081B4F8685017
:1039300023E02068A16D406A30400870A06D401CF3
:10394000A065B4F85E00401EA4F85E00B4F85E0006
:1039500088B92068202214490023076827F480775B
:103960000760206887680F408760C4F8842020467D
:10397000E366FFF78BF86D1EADB2002DD9D1B4F818
:103980005E000028D0D0B4F868108142CCD92068FD
:10399000816821F0805181600448E06620680168F8
:1039A00041F020010160BFE7FEFFFFEFAD380008E6
:1039B0002DE9F04304468068D94F87B02268D4E9E6
:1039C0000465E369616E304316681D432843D54B97
:1039D000002501433E400E4316602068E2684168BE
:1039E00021F44051114341602268A1699A4201D0FB
:1039F000206A01439668DFF830C3CC4FCC4806EA12
:103A00000C060E4396602168666ACA6A22F00F02AD
:103A10003243CA622268BA420ED1006800F0380010
:103A2000182873D047DCB8B3082879D010286FD194
:103A300078E028287ED17BE0BE498A4209D100681F
:103A400000F00700062875D2DFE800F0546A6C6EBB
:103A50007072B9498A4209D1006800F0070006284F
:103A600068D2DFE800F0475D5F616365B3498A4271
:103A700009D1006800F0070006285BD2DFE800F0FB
:103A80003A5052545658AE498A420BD1006800F061
:103A9000070006284ED200E010E0DFE800F02B41DE
:103AA00043454749A7498A420AD1006800F03800D7
:103AB000182839D0B7DD2028BBD13CE001203AE0FE
:103AC000A1498A4209D1006800F00700062831D2D6
:103AD000DFE800F01026282A2C2E9C498A420BD1C0
:103AE000006800F00700062824D2DFE800F0031980
:103AF0001B1D1F2100201EE09A421BD18C48001D77
:103B0000006800F00700062814D202E00CE007E08D
:103B100010E0DFE800F0030507090B0D02200AE0C2
:103B2000042008E0082006E0102004E0202002E045
:103B3000402000E080208649DFF818829A42864AB9
:103B40004FF400434FEA21174FF000064ED11028E2
:103B50001AD006DC022809D004280BD008287DD111
:103B60000DE020283ED0402878D13DE0FCF798FFBA
:103B7000014610E06846FCF7A5FF01990BE003A899
:103B8000FDF742F8049906E01068800604D5106835
:103B9000C0F3C100C140C1B3606A676838F8102043
:103BA00007EB4703B1FBF2F0834257D8B0EB073F76
:103BB00054D8002308461946FCF7DEFB090202022E
:103BC00041EA106170084FEA370010183A46714117
:103BD0000023FCF7D1FB614AA0F5407191423DD82A
:103BE00021684CE03946D7E71946D5E7D4F81CC020
:103BF0004FF6EF799C4552D108281AD006DC60B107
:103C000001280DD0042829D10EE039E0102815D064
:103C1000202840D040287CD13FE0FDF773FE01E032
:103C2000FDF782FE014610E06846FCF74BFF019964
:103C30000BE003A8FCF7E8FF049906E01068800693
:103C400004D51068C0F3C100C140C9B1636A60689F
:103C500038F81330B1FBF3F1490000E059E001EB13
:103C60005001B1FBF0F080B2A0F11001494550D8ED
:103C70004FF6F0732168C0F3420218401043C86049
:103C80000120A4F86A00A4F868002846E6662667C2
:103C900007B0BDE8F0833946D8E71946D6E70828CB
:103CA00019D005DC58B101280CD0042831D10DE021
:103CB000102815D020282ED040282AD12DE0FDF73D
:103CC00021FE01E0FDF730FE014610E06846FCF7FA
:103CD000F9FE01990BE003A8FCF796FF049906E0B2
:103CE0001068800605D51068C0F3C100C1400029E6
:103CF000C6D0636A606838F81330B1FBF3F101EBAA
:103D00005001B1FBF0F080B2A0F1100149457FF6FF
:103D100067AF0125B4E73946EBE71946E9E700004C
:103D2000F369FFCF000C0058FFF4FF1100100140B1
:103D3000544402580044004000480040004C0040F9
:103D4000005000400014014000780040007C00401A
:103D50000090D003683F000800440258FFFC0F00A9
:103D60002DE9F0479A4617460E460446089D4FF047
:103D700000094FF0200839E0681C37D0FCF796FDA9
:103D8000A0EB0A00A84222D80DB3206801684907B9
:103D90002CD5C069C043000528D423684FF40061C6
:103DA000196221680B6823F4D0730B6021688B685B
:103DB00023F001038B60C4F88080C4F88480C4F8C9
:103DC000888000BF032084F87C90BDE8F0872168DC
:103DD0000B6823F4D0730B6021688B6823F0010318
:103DE0008B60C4F88080C4F88480EBE72068C069E9
:103DF00036EA000004D00020B842BDD00020E4E73D
:103E00000120F9E7FEE7090700284FEA116104DB0A
:103E100000F1E02080F80014704700F00F0000F17E
:103E2000E02080F8141D7047BFF34F8FBFF36F8FF2
:103E3000364900200860BFF34F8FBFF36F8F3449BE
:103E40000A6842F400320A60BFF34F8FBFF36F8FEE
:103E50002F4A70321060BFF34F8F101F43F6FF746C
:103E600000682A4D1035C0F34E32C0F3C90304EA8E
:103E70004216184646EA80772F60401EFAD2521E3C
:103E8000F5D2BFF34F8F086840F480300860BFF36D
:103E90004F8FBFF36F8FFCF717FDFFF783FAFEF725
:103EA000F9FDFEF7BFFEFEF719FFFEF74BFFFEF729
:103EB0007DFFFEF789FEFEF7E3FEFCF739FBFFF717
:103EC000DFF8FFF7E4F913490020FCF7ABFB114CD6
:103ED000241FA11D20700320FCF7B6FB60700E4864
:103EE000FCF798FB20700C481030FCF7A5FB6070C5
:103EF00010200849091DFFF747FA0649A070102055
:103F00000831FFF747FAE070F2E7000050EF00E0F9
:103F100014ED00E0040000243C0400244FF0407045
:103F2000E1EE100A704700006C05002400100258F2
:103F30000800000000100258100000005C0400247B
:103F40000004025800800000000402580010000025
:103F5000F405002400000258000801008006002437
:103F6000000C0258000401000100020004000600D9
:103F700008000A000C001000200040008000000132
:103F800000000000010203040102030406070809FF
:103F9000B03F00080000002424000000D402000804
:103FA000D43F000824000024240E0000F002000882
:103FB0000000000000000000000000000000000001
:103FC0000100000010000000000000000090D0037D
:043FD0000090D0038A
:040000050800029954
:00000001FF
