:020000040800F2
:10000000581E002465030008895300082141000898
:100010008153000829080008D1730008000000007F
:100020000000000000000000000000006165000802
:1000300031080008000000009153000869650008BD
:100040007F0300087F0300087F0300087F03000888
:100050007F0300087F0300087F0300087F03000878
:100060007F0300087F0300087F0300087F03000868
:100070007F0300087F0300087F0300087F03000858
:100080007F0300087F0300087F0300087F03000848
:100090007F0300087F0300087F0300087F03000838
:1000A0007F0300087F0300087F0300087F03000828
:1000B0007F0300087F0300087F0300087F03000818
:1000C0007F0300087F0300087F0300087F03000808
:1000D0007F030008A1730008B1730008C173000812
:1000E0007F0300087F030008000000007F03000872
:1000F0007F0300087F0300087F0300087F030008D8
:100100007F0300087F0300087F0300087F030008C7
:100110007F0300087F030008616700087F03000871
:100120007F0300087F0300087F0300087F030008A7
:100130007F0300087F0300087F0300087F03000897
:1001400000000000000000000000000000000000AF
:100150007F0300087F0300087F0300087F03000877
:100160007F0300087F0300087F0300087F03000867
:100170007F0300087F0300087F03000800000000E1
:100180007F0300087F030008C16800087F030008A0
:100190007F0300087F0300087F0300087F03000837
:1001A0007F0300087F0300087F0300087F03000827
:1001B0007F0300087F0300087F0300087F03000817
:1001C0007F0300087F0300087F0300087F03000807
:1001D0007F0300087F0300087F0300087F030008F7
:1001E0007F0300087F0300087F0300087F030008E7
:1001F0007F0300087F0300087F0300087F030008D7
:100200007F0300087F0300087F0300087F030008C6
:100210007F0300087F0300087F0300087F030008B6
:100220007F0300087F0300087F0300080000000030
:100230007F0300087F030008000000007F03000820
:100240007F0300087F0300087F0300087F03000886
:100250007F0300087F0300087F0300087F03000876
:100260007F0300087F0300087F0300087F03000866
:100270007F0300087F0300087F03000800000000E0
:100280007F0300087F0300087F03000800000000D0
:10029000000000007F03000800F002F800F052F8B0
:1002A00014A696E8000CB244B344DA4501D100F03C
:1002B00049F8BAE80F000FA696E83000A5EB040550
:1002C00004EB0607AAEB0704A7F101074FEA15158F
:1002D0004FEA3414A4F10104AC4201D300F032F827
:1002E00013F0010F18BFFB1A43F0010300F001F8EF
:1002F000DBE718472073000040730000103A24BF6A
:1003000078C878C1FAD8520724BF30C830C144BF7A
:1003100004680C6070470000704700000023002450
:1003200000250026103A28BF78C1FBD8520728BF05
:1003300030C148BF0B6070471FB507F018F91FBDEB
:1003400010B510BD00F04FF91146FFF7F5FF07F0AB
:1003500043F800F06DF903B4FFF7F2FF03BC00F0BF
:1003600075F900000948804709480047FEE7FEE7A5
:10037000FEE7FEE7FEE7FEE7FEE7FEE7FEE7FEE755
:1003800004480549054A064B70470000816600088D
:100390009902000858180024581E0024581A0024F6
:1003A000581A002453EA020C00F069802DE9F04B42
:1003B0004FF00006002B1FBFB3FA83F503FA05F4D4
:1003C00024FA05F65E4012BF1643B2FA82F502FA2D
:1003D00005F4C5F120051EBF22FA05FC44EA0C0411
:1003E000203556EA044C4FEA144418BF641C4FF001
:1003F00000084FF00009904271EB030C39D300293B
:1004000019BFB1FA81F701FA07F6B0FA80F700FADE
:1004100007F6C7F120071EBF20FA07FC46EA0C06C4
:100420002037B6FBF4FCA7EB0507103F07F01F0BC6
:10043000CBF120062CFA06F60CFA0BFB44BFB346B0
:100440000026202FA4BF5E464FF0000B5BEA060C8F
:1004500008BF4FF0010B19EB0B0948EB0608ABFB8B
:10046000027C06FB02CC0BFB03CCC01B71EB0C0126
:10047000C1E70B46024641464846BDE8F08B13B53E
:10048000084318BF4FF0FF300146AFF30080BDE8CE
:100490001C407047032A40F2308010F0030C00F03B
:1004A000158011F8013BBCF1020F624498BF11F8AE
:1004B00001CB00F8013B38BF11F8013BA2F1040267
:1004C00098BF00F801CB38BF00F8013B11F00303DF
:1004D00000F05780083AC0F0088051F8043B083A11
:1004E00051F804CBA0E80810F5E7121D5CBF51F8E5
:1004F000043B40F8043BAFF30080D20724BF11F85F
:10050000013B11F801CB48BF11F8012B24BF00F8C3
:10051000013B00F801CB48BF00F8012B704702F007
:10052000FF0343EA032242EA024200F002B84FF01E
:10053000000200B5134694469646203922BFA0E833
:100540000C50A0E80C50B1F12001BFF4F7AF09073F
:1005500028BFA0E80C5048BF0CC05DF804EB890030
:1005600028BF40F8042B08BF704748BF20F8022B73
:1005700011F0804F18BF00F8012B7047704770478B
:10058000704710B5203AC0F00B80B1E81850A0E8D1
:100590001850B1E81850A0E81850203ABFF4F5AF51
:1005A0005FEA027C24BFB1E81850A0E8185044BFAD
:1005B00018C918C0BDE810405FEA827C24BF51F81A
:1005C000043B40F8043B08BF7047D20728BF31F80E
:1005D000023B48BF11F8012B28BF20F8023B48BF5F
:1005E00000F8012B7047754600F02CF8AE46050068
:1005F0006946534620F00700854618B020B5FFF73E
:10060000BFFEBDE820404FF000064FF000074FF05E
:1006100000084FF0000BAC46ACE8C009ACE8C009DC
:10062000ACE8C009ACE8C00921F007018D4670476D
:1006300010B50446AFF300802046BDE81040FFF738
:100640008ABE000000487047280000240149182095
:10065000ABBEFEE72600020070470000000000006D
:1006600010B540F600044FF48071C5F60204012273
:10067000204600F0C1FD4FF4007101222046BDE884
:10068000104000F0B9BD000070B569B140F6000639
:100690000D460446C5F602060022304621462B468A
:1006A00000F042F810B170BD012070BDAB1C0122FA
:1006B0003046214600F038F80028F4D12B1D0222E4
:1006C0003046214600F030F80028ECD1AB1D032263
:1006D0003046214600F028F80028E4D105F108034F
:1006E00004223046214600F01FF80028DBD105F136
:1006F0000A0305223046214600F016F80028D2D120
:1007000005F10C0306223046214600F00DF80028C2
:1007100018BF70BD05F10E03072230462146BDE823
:10072000704000F001B800002DE9F04184B00546AA
:100730000020ADF80A00072AADF808004FF00100CC
:1007400003D8002D18BF002B02D104B0BDE8F08102
:100750004FF4C050984600EBC217002228462E46A0
:100760000C4600F049FD40F6B43003A9C2F2004047
:100770000DF10A020123ADF80C706425009502F01A
:100780003BFC48B1012205463046214600F034FDCD
:10079000284604B0BDE8F08140F6B4300DF10E01FA
:1007A000C2F2004002AA0123ADF80E70009502F0DB
:1007B00023FC054601223046214600F01DFD284657
:1007C000002DC2D1BDF808006FF31F30A8F800005B
:1007D000002004B0BDE8F08101464FF48070FFF7BF
:1007E00053BF00000000000040F6000C0B46C5F6A9
:1007F000020C4FF4807102466046FFF795BF00007F
:1008000001464FF40070FFF73FBF000000000000FA
:1008100040F6000C0B46C5F6020C4FF40071024680
:100820006046FFF781BF0000FEE700000000000007
:100830007047000000000000EFF3108072B600BFA8
:10084000FEE70000000000002DE9F041044600F042
:10085000E3FC1CB3054694F83500022822D140F28F
:100860000F472668C4F2020740F26F48BE426FF09D
:100870000E00C4F202081DDC6F21C4F202018E4298
:100880002ADC3F21C4F202018E4241DC1021C4F275
:1008900002018E4263D028215CE000BF0120BDE848
:1008A000F08100BF80206065002084F834000120C2
:1008B000BDE8F08146451BDC40F23F41C4F2020135
:1008C0008E422DDC40F21041C4F202018E4246D02D
:1008D00040F228413EE000BF9F21C4F202018E4257
:1008E00028DC7021C4F202018E4238D0882131E028
:1008F00040F29F41C4F202018E4223DC40F270417B
:10090000C4F202018E422AD040F2884122E000BFA8
:100910004021C4F202018E4221D058211AE000BFCA
:1009200040F24041C4F202018E4218D040F25841D8
:1009300010E000BFA021C4F202018E420FD0B82106
:1009400008E000BF40F2B841C4F202018E4206D076
:1009500040F2A041C4F202018E42314607D1314635
:10096000306820F01E0041F8140B6FF080000A6818
:10097000464500EA020008601ADC9F20C4F202002B
:10098000864233DC5720C4F2020086425ADC102033
:10099000C4F20200864200F097802820C4F20200D0
:1009A000864200F091804020C4F202008AE000BF3D
:1009B00045F22F40C5F6020086422DDC40F2B740DA
:1009C000C4F2020086424BDC40F27040C4F20200E6
:1009D000864279D040F28840C4F20200864273D049
:1009E00040F2A040C4F202006CE000BF40F2274099
:1009F000C4F20200864243DCA020C4F20200864218
:100A000062D0B820C4F2020086425DD040F21040AD
:100A1000C4F2020056E000BF45F26B40C5F602008A
:100A200086423FDC45F23040C5F6020086424BD09C
:100A300045F24440C5F60200864245D045F2584092
:100A40003EE000BF5820C4F2020086423CD0702035
:100A5000C4F20200864237D08820C4F2020031E09E
:100A600040F2B840C4F2020086422DD045F2084060
:100A7000C5F60200864227D045F21C4020E000BFA8
:100A800040F22840C4F2020086421DD040F24040AD
:100A9000C4F20200864217D040F25840C4F202006D
:100AA00010E000BF45F26C40C5F6020086420BD054
:100AB00045F29440C5F60200864205D045F28040DA
:100AC000C5F60200864204D1206E016821F48071CF
:100AD0000160306820F00100306000BF3068C0075E
:100AE00010D000F099FB401B0628F7D3202060654A
:100AF000002084F83400032084F835000120BDE88C
:100B0000F08100BF20680821B8424FF03F0211DC9D
:100B10006F23C4F2020398421EDC3F23C4F2020397
:100B2000984235DC1023C4F20203984257D02823A0
:100B300050E000BF40451BDC40F23F43C4F20203DB
:100B400098422DDC40F21043C4F20203984246D092
:100B500040F228433EE000BF9F23C4F202039842C4
:100B600028DC7023C4F20203984238D0882331E095
:100B700040F29F43C4F20203984223DC40F27043E8
:100B8000C4F2020398422AD040F2884322E000BF18
:100B90004023C4F20203984221D058231AE000BF38
:100BA00040F24043C4F20203984218D040F2584346
:100BB00010E000BFA023C4F2020398420FD0B82374
:100BC00008E000BF40F2A043C4F20203984206D0FE
:100BD00040F2B843C4F20203984240F0C380D4E923
:100BE000163707F01F07404502FA07F25A5019DC82
:100BF0009F21C4F20201884232DC5721C4F2020173
:100C0000884259DC1021C4F20201884200F096802B
:100C10002821C4F20201884200F090804021C4F2F1
:100C2000020189E045F22F41C5F6020188422DDC20
:100C300040F2B741C4F2020188424BDC40F27041FD
:100C4000C4F20201884279D040F28841C4F2020124
:100C5000884273D040F2A041C4F202016CE000BFB0
:100C600040F22741C4F20201884243DCA021C4F2D1
:100C70000201884262D0B821C4F2020188425DD0EC
:100C800040F21041C4F2020156E000BF45F26B4150
:100C9000C5F6020188423FDC45F23041C5F602014B
:100CA00088424BD045F24441C5F60201884245D006
:100CB00045F258413EE000BF5821C4F2020188428B
:100CC0003CD07021C4F20201884237D08821C4F29E
:100CD000020131E040F2B841C4F2020188422DD055
:100CE00045F20841C5F60201884227D045F21C4171
:100CF00020E000BF40F22841C4F2020188421DD02A
:100D000040F24041C4F20201884217D040F25841FB
:100D1000C4F2020110E000BF45F26C41C5F60201C9
:100D200088420BD045F29441C5F60201884205D0B5
:100D300045F28041C5F6020188420BD1616EA26E78
:100D4000E06E4A6030B1016821F480710160D4E93D
:100D50001C014160002084F83400012184F8351022
:100D6000BDE8F0810421012239E700000000000005
:100D7000F0B190F83510022918D180B540F20F4239
:100D80000168C4F20202914214DC6F23C4F2020330
:100D9000994225DC3F23C4F2020399423CDC102334
:100DA000C4F2020399425DD0282357E080214165B7
:100DB0000120704740F26F43C4F2020399421BDCEA
:100DC00040F23F43C4F2020399422DDC40F210434B
:100DD000C4F20203994245D040F228433EE000BFEE
:100DE0009F23C4F20203994228DC7023C4F2020359
:100DF000994237D0882331E040F29F43C4F2020386
:100E0000994223DC40F27043C4F20203994229D094
:100E100040F2884322E000BF4023C4F2020399421B
:100E200020D058231AE000BF40F24043C4F202032E
:100E3000994217D040F2584310E000BFA023C4F2FB
:100E4000020399420ED0B82308E000BF40F2B84335
:100E5000C4F20203994205D040F2A043C4F2020357
:100E6000994275D191424FF0040280F8352011DC8F
:100E70006F20C4F20200814222DC3F20C4F2020053
:100E8000814239DC1020C4F20200814259D028206E
:100E900054E000BF40F26F40C4F2020081421BDC0C
:100EA00040F23F40C4F2020081422DDC40F210408B
:100EB000C4F20200814244D040F228403EE000BF2C
:100EC0009F20C4F20200814228DC7020C4F202009C
:100ED000814236D0882031E040F29F40C4F20200C7
:100EE000814223DC40F27040C4F20200814228D0EB
:100EF00040F2884022E000BF4020C4F2020081425C
:100F00001FD058201AE000BF40F24040C4F2020057
:100F1000814216D040F2584010E000BFA020C4F239
:100F2000020081420DD0B82008E000BF40F2B84076
:100F3000C4F20200814204D040F2A040C4F2020098
:100F40008142086820F001000860002080BD00BFD9
:100F50000A6822F00E020A6045F25742C5F6020204
:100F600091420A6822F001020A600FDC45F22F422A
:100F7000C5F60202914219DC45F20842C5F60202AA
:100F8000914229D045F21C4222E000BF45F27F4247
:100F9000C5F60202914213DC45F25842C5F6020240
:100FA000914219D045F26C4212E000BF45F2304246
:100FB000C5F6020291420FD045F2444208E000BF5C
:100FC00045F29442C5F60202914205D045F28042B4
:100FD000C5F6020291421AD1D0E9181CD0E916E3F5
:100FE0000A6822F480720A6003F01F01012202FAEB
:100FF00001F1CEF80410816ECCF80410C16E31B14D
:101000000A6822F480720A60D0E91C124A6000214A
:1010100080F83410012180F83510016D002994D03A
:101020008847002080BD0000406D70470000000030
:101030002DE9F04F83B00F68002F00F0D98000F148
:1010400026420A2302F1FF7642F20042C5F602026E
:101050004FEAB625904200F1200208BF0923019211
:10106000092D38BF4FEAB62300244FF0010E0026A9
:101070004FF0000800930AE008F101080F6837FA02
:1010800008F206F1020604F1040400F0B1800EFA41
:1010900008FC17EA0C09EFD0D1F804A0BAF1120F3E
:1010A00000F29E800EFA0AF717F0061F00F09880F3
:1010B0000322876802FA06FECA6827EA0E05B240D4
:1010C0002A43826042684FEA1A154FEA480B6FEADA
:1010D0000E0E22EA0C0205FA08F52A4342604AF095
:1010E0001005C268122D8D6802EA0E0205FA0BF592
:1010F00042EA0502C26014D16FF00302019D02EAC8
:10110000580204F01C030F2755F802C09F40D1F885
:1011100010A02CEA07070AFA03F33B43AB50D1F8BF
:1011200004A00AF00302036802FA0BF203EA0E03BA
:101130005FEACA074FF0010E42EA030202609BD544
:1011400044F2F44340F2084CC5F60203C5F6000C25
:101150000F254FF0B04A1A6842F002021A601A686E
:1011600002F00202029228F00302029B04F00C0338
:1011700052F80C709D40AF43009D05FA03F33B43CA
:1011800042F80C3040F2040CC5F6000CDCF87C2070
:101190004B6842EA0907DD0358BF22EA09079D03AD
:1011A000CCF87C70DCF8802042EA090758BF22EABC
:1011B0000907DD02CCF88070DAF8002042EA09075E
:1011C00058BF22EA09079B02CAF80070DCF8002029
:1011D00042EA090758BF22EA0907CCF800704BE73A
:1011E0000322B34602FA06F76FEA070E77E700BF5D
:1011F00003B0BDE8F08F0000002A08BF0904816138
:10120000704700000000000041F20000C5F60040F9
:101210000068000C7047000041F65400C2F2004024
:10122000006870470000000040F2140041F65401CD
:10123000C2F20040C2F2004100780A68104408601F
:10124000704700000000000080B5032000F0F0F8B7
:1012500001F062FA44F2184147F29453C5F60201D4
:10126000C0F600030A68C2F303229A5C096801F021
:101270000F0102F01F02595CD04040F22002C2F27E
:10128000004201F01F0120FA01F1116040F21C013F
:10129000C2F200410860002000F00AF800281CBFDC
:1012A000012080BD00F058F8002080BD0000000043
:1012B0000F2847D8B0B58AB0044636200022214610
:1012C000002500F085F8362000F06EF840F2180096
:1012D000C2F20040046044F2E840C5F60200016832
:1012E00041F010010160006801A900F010000290B7
:1012F000029802A801F05CF9079C002C18BF012499
:1013000001F0AAF94DF68361A040C4F21B3141F20D
:101310000002A0FB010140F6C440C2F200404FF0C1
:10132000FF33C4F20002026003EB9141C0E90115F2
:1013300040F2E731C0E9031502F05AF820B101206C
:101340000AB0B0BD0120704740F6C440C2F2004070
:1013500002F082F80AB0B0BD81B044F2F440C5F6A4
:101360000200016841F002010160006800F0020023
:101370000090009801B07047002848BF70474EF2B7
:10138000801300F01F01C0F34A10CEF200030122C7
:1013900002FA01F143F82010BFF34F8FBFF36F8FB4
:1013A0007047000000000000002848BF70474EF260
:1013B000001300F01F01C0F34A10CEF20003012217
:1013C00002FA01F143F8201070470000000000000D
:1013D00070B54EF60C5C4FF0FF36CEF2000C00F10B
:1013E000604505F56445DCF80030C3F3022E8EF04D
:1013F0000703042B28BF0423BEF1030406FA03F3FA
:1014000021EA030100F00F0338BF0024043B002849
:10141000634406FA04F048BF03F10C05A14022EA38
:10142000000008430001287070BD000000000000AB
:101430004EF60C514FF6FF03CEF200010A681A4037
:1014400060F30A2242F0806040F0FD70086070474F
:10145000B0B544F60C05C5F60205296849072968A8
:1014600006D401F00701081A18BF0120B0BD00BF63
:1014700021F0070108432860FFF7CEFE044600BFB5
:1014800055F8080C800407D4FFF7C6FE001BB0F522
:101490007A7FF5D90120B0BD0020B0BD000000006A
:1014A00080B501F0B1F844F2204147F29452C5F6FC
:1014B0000201C0F600020968C1F30211515C01F09B
:1014C0001F01C84080BD000080B544F2384EC5F60B
:1014D000020E5EF8103C5EF8101C5EF80C2CC1F396
:1014E000053CDEF80410BCF1000F15D0C908D20687
:1014F00001EAE2716FF35F3100EE101A03F00301AD
:101500000229B8EE400A0DD081B95EF8381C890670
:1015100010D49FED361A1BE000218160C0E9001154
:1015200080BD00BF9FED301A12E000BF9FED2D1A65
:101530000EE000BF5EF8381C49F20002C0F2D03263
:10154000C1F3C10122FA01F101EE101AB8EE411AFD
:10155000DEF800109FED263A6FF35F2102EE101ABD
:10156000DEF80010C1F34621B8EE422A00EE032A4D
:1015700000EE10CAB7EE003AB8EE400A81EE000A5B
:1015800032EE031A02EE101AB8EE422A20EE010AD9
:1015900032EE031A80EE011ABCEEC11A80ED001A79
:1015A000DEF80010C1F3064101EE101AB8EE411A40
:1015B00031EE031A80EE011ABCEEC11A80ED011A59
:1015C000DEF80010C1F3066101EE101AB8EE411A00
:1015D00031EE031A80EE010ABCEEC00A10EE101ABA
:1015E000816080BD0024744A20BCBE4B0024744C32
:1015F000000000390000000080B544F2404EC5F6FE
:10160000020E5EF8183C5EF8181C5EF8142CC1F34C
:10161000055CDEF80410BCF1000F15D0C908D20536
:1016200001EAE2716FF35F3100EE101A03F003017B
:101630000229B8EE400A0DD081B95EF8401C890637
:1016400010D49FED361A1BE000218160C0E9001123
:1016500080BD00BF9FED301A12E000BF9FED2D1A34
:101660000EE000BF5EF8401C49F20002C0F2D0322A
:10167000C1F3C10122FA01F101EE101AB8EE411ACC
:10168000DEF800109FED263A6FF35F2102EE101A8C
:10169000DEF80010C1F34621B8EE422A00EE032A1C
:1016A00000EE10CAB7EE003AB8EE400A81EE000A2A
:1016B00032EE031A02EE101AB8EE422A20EE010AA8
:1016C00032EE031A80EE011ABCEEC11A80ED001A48
:1016D000DEF80010C1F3064101EE101AB8EE411A0F
:1016E00031EE031A80EE011ABCEEC11A80ED011A28
:1016F000DEF80010C1F3066101EE101AB8EE411ACF
:1017000031EE031A80EE010ABCEEC00A10EE101A88
:10171000816080BD0024744A20BCBE4B0024744C00
:1017200000000039000000002DE9F0470446C078B1
:1017300044F22C480007C5F602082DD5606E4FEA2A
:10174000305103293ED8DFE801F0030B172000BF1A
:10175000D8F8001041F40031C8F8001015E000BFBF
:10176000201D022103F018FE064668B16078C0070C
:1017700016D1354653E000BF04F12400022103F0E6
:101780009FFE06460028F1D1606ED8F8241021F49F
:1017900040110843C8F8240000266078C007E8D04C
:1017A000606D042800F278803546DFE800F01B27E2
:1017B000110303002F464DB36078800740F171801C
:1017C00031E000BF01266078C007D2D0E8E700BF53
:1017D00004F12400002103F073FE0546002D2F467E
:1017E000EAD113E0D8F80000354640F40030C8F8DC
:1017F0000000002D2F46DFD108E000BF201D002192
:1018000003F0CAFD0546002D2F46D5D1D8F8240097
:10181000616D20F0070000250843C8F82400374612
:10182000607880073DD5A06D4FEAB010042800F223
:101830007980DFE800F0151F0B0303002E460DB37F
:101840006078400740F173802FE000BF04F124006E
:10185000002103F035FE0546002D2E46F0D111E0A3
:10186000D8F8000040F40030C8F80000002D2E46E3
:10187000E6D107E0201D002103F08EFD0546002D76
:101880002E46DDD1D8F82400A16D20F4E0700025AB
:101890000843C8F8240004E0012501276078800788
:1018A000C1D43E466078400741D5D4F8A4004FEA41
:1018B0007050042800F28080DFE800F016200C044D
:1018C000040000BFA9460DB36078000740F17A809C
:1018D00031E000BF04F12400002103F0F1FD0546D2
:1018E000002DA946F0D111E0D8F8000040F40030F6
:1018F000C8F80000002DA946E6D107E0201D002110
:1019000003F04AFD0546002DA946DDD1D8F82C008C
:10191000D4F8A41020F4600000250843C8F82C0077
:1019200005E000BF0125012660784007BDD4B1461F
:101930006078000746D5D4F8A8004FEA3060042844
:1019400000F21281DFE800F01A241004040000BF46
:101950002F462DB3E078800738D43E466078C00625
:1019600040F1A98041E000BF04F12400002103F010
:10197000A7FD0546002D2F46ECD111E0D8F8000058
:1019800040F40030C8F80000002D2F46E2D107E0F7
:10199000201D002103F000FD0546002D2F46D9D162
:1019A000D8F82C00D4F8A81020F0E06000250843F7
:1019B000C8F82C0006E000BF01254FF0010960784F
:1019C0000007B8D44F46E0788007C6D5A06C4FEA30
:1019D0003010032844D8DFE800F003232D0300BFB4
:1019E0002E467DB36078C00665D5E06D4FEA303095
:1019F000042800F2C180DFE800F0434D3903030002
:101A0000002D2F464ED06078800658D43E46607830
:101A1000400667D437466078000640F1078175E0DC
:101A2000D8F8000040F40030C8F80000002D2E4621
:101A3000D8D107E0201D022103F0AEFC0546002DA1
:101A40002E46CFD1D8F82000A16C20F03000002520
:101A50000843C8F820003E466078C0062BD5C4E78E
:101A6000012501266078C006BFD424E004F12400DB
:101A7000002103F025FD0546002D2F46C3D111E0BE
:101A8000D8F8000040F40030C8F80000002D2F46C0
:101A9000B9D107E0201D002103F07EFC0546002D92
:101AA0002F46B0D1D8F82400E16D20F4E0400025A5
:101AB0000843C8F82400374660788006A6D5206E13
:101AC0004FEA3040052800F27380DFE800F0037F22
:101AD0005D030303002D2E4600F0818060784006F0
:101AE0007FF598AFD4F8AC004FEA3070052867D87E
:101AF000DFE800F004845404040400BF002D2F46E6
:101B000000F085806078000640F19080E06E58B16A
:101B1000B0F1005F10D0B0F1805F1FD1D8F80000A5
:101B200040F40030C8F800002E466DB1E078C007E0
:101B300000F093807EE000BF201D012103F02CFC0B
:101B40000546002D2E46F1D1D8F82400E16E20F094
:101B5000405000250843C8F8240067E0012501260D
:101B6000E078C00766D178E001250127E07880079A
:101B70003FF52CAFF1E600BF012501276078800614
:101B80003FF59DAF42E700BF04F12400012103F0BF
:101B900097FC0546002D2E46A0D120E004F124003C
:101BA000012103F08DFC0546002D2F46AAD12EE021
:101BB00001250126607840063FF594AF2AE700BF73
:101BC0000125012760780006A0D42FE0201D012107
:101BD00003F0E2FB0546002D2E467FF47FAFD8F8D8
:101BE0002400216E20F4E02000250843C8F82400DA
:101BF0003E46607840067FF50DAF73E7201D01215A
:101C000003F0CAFB0546002D2F467FF47BAFD8F8C2
:101C10002C00D4F8AC1020F0E04000250843C8F8B0
:101C20002C003746607800063FF570AF3E46E078FE
:101C3000C00712D0606C032800F2AC80DFE800F02F
:101C40000294A002A9464DB9D8F82000616C20F09A
:101C5000030000250843C8F82000B146A0784006DC
:101C600002D44F461AE000BFD8F8D40340F4807085
:101C7000C8F8D403FFF7D0FA064600BFD8F8D4035B
:101C8000C00507D4FFF7C8FA801B6428F6D90325DE
:101C9000032703E0002D2F4600F080802078C00746
:101CA00000F0D280A06F4FEAF000052800F2B48067
:101CB000DFE800F004B8A604040400BF002D2E469F
:101CC00000F0B9802078800700F1C3803746207883
:101CD000400700F1D3803E462078800600F1E48082
:101CE00037462078400600F1F7803E46207800060F
:101CF00000F10A8137462068010740F11D81D4F8C0
:101D00008000B0F5805F09D104F12400022103F0C6
:101D1000D7FB002818BF0127D4F88000D8F8281076
:101D200021F440510843C8F828002068C10640F15A
:101D30000681D4F89400B0F5807F09D104F1240025
:101D4000022103F0BDFB002818BF0127D4F894003E
:101D5000D8F82C1021F440710843C8F82C002068F2
:101D6000000340F11381ECE0D8F8000040F40030AB
:101D7000C8F80000002DA9467FF470AF64E700BFEB
:101D8000201D022103F008FB0546002DA9467FF423
:101D900065AF59E701254FF001095FE7D8F8441016
:101DA000D4F8B000414011F4407F11D0D8F844106D
:101DB000D8F8442042F48032C8F84420D8F84420AF
:101DC00021F4407122F48032C8F84420C8F844104D
:101DD000B0F5807F40F0A482FFF71EFA064641F27C
:101DE000883A0325032700BFD8F84400800700F194
:101DF0009582FFF711FA801B5045F5D94EE700BFD9
:101E000004F12400012103F05BFB0546002D2E4662
:101E10007FF458AF0FE000BF01250126207880072E
:101E200017D453E7201D012103F0B6FA0546002D13
:101E30002E467FF447AFD8F82800A16F20F0380075
:101E400000250843C8F828003E46207880077FF523
:101E50003DAF606F052800F2B981DFE810F00700A0
:101E6000DF017B0107000700070000BF002D2F46A0
:101E700000F0DD81207840077FF52DAFD4F8900089
:101E8000052800F2AB81DFE810F00700E1017101E5
:101E900007000700070000BF002D2E4600F0DF817D
:101EA000207880067FF51CAFD4F88C004FEA3070A4
:101EB000052800F29B81DFE810F00700E3016501CF
:101EC00007000700070000BF002D2F4600F0E1814A
:101ED000207840067FF509AFD4F898004FEAB0208B
:101EE000052800F28B81DFE810F00700E5015901B9
:101EF00007000700070000BF002D2E4600F0E38119
:101F0000207800067FF5F6AED4F89C004FEA7030DA
:101F1000052800F27B81DFE810F00700E7014D01A2
:101F200007000700070000BF002D2F4600F0E581E5
:101F3000206801073FF5E3AEC1063FF5FAAE0003A6
:101F400024D5D4F8A000B0F5003F0FD0B0F5803F05
:101F500006D000284AD1201D002103F01DFA04E01C
:101F600004F12400022103F0ABFA05462E461DB110
:101F7000A07840073FD50DE0D8F82C00D4F8A01089
:101F800020F4403000250843C8F82C003E46A078D5
:101F9000400730D5D4F88400B0F5401F0BD0B0F521
:101FA000001F0FD0B0F5801F64D1D8F8000040F4B6
:101FB0000030C8F800002F466DB1A078C0071ED1D0
:101FC0005DE000BF04F12400012103F079FA054629
:101FD000002D2F46F1D1D8F82800D4F8841020F431
:101FE000401000250843C8F8280004E00125012618
:101FF000A0784007CED43746A078C0073FD0E06C29
:10200000B0F5803F1ED078BBD8F8000040F4003017
:10201000C8F800002E46EDB12068810033D481035A
:102020003CD4C10250D4C10058D4810261D44100D3
:1020300069D4B0F1FF3F77DD002E18BF012630468E
:10204000BDE8F087201D022103F0A6F90546002D0A
:102050002E46E1D1D8F82000E16C20F48030002534
:102060000843C8F820000AE0012501262068810005
:10207000D5D508E001250127A078C007BFD13E468D
:1020800020688100CBD504F12400022103F018FA66
:10209000002818BF012620688103C2D5E16F6FF0C8
:1020A000010202EB3122022A0AD34FEA31223AB16D
:1020B000012A06D1D8F8002042F40032C8F80020E6
:1020C000E5B30126C102AED5D8F82410226F21F065
:1020D00000411143C8F82410C100A6D558F81C1CB3
:1020E000D4F8B42021F48041114348F81C1C81022B
:1020F0009DD5D8F82410A26E21F080711143C8F844
:102100002410410095D558F81C1C21F4004148F8D2
:102110001C1CD4F8B81058F81C2C114348F81C1C8F
:10212000B0F1FF3F3FF788AFD8F82000216D20F0D5
:1021300040500843C8F820007EE700BFD8F82820A8
:1021400022F440721143C8F82810C1027FF56BAF2A
:10215000BAE700BF04F12400012103F0B1F90546FC
:10216000002D2F467FF486AE61E000BF04F124000D
:10217000012103F0A5F90546002D2E467FF490AE0F
:102180006DE000BF04F12400022103F099F9054637
:10219000002D2F467FF49CAE7BE000BF04F12400AD
:1021A000022103F08DF90546002D2E467FF4A8AEDE
:1021B00089E000BF04F12400022103F081F9054603
:1021C000002D2F467FF4B4AE97E000BF0125012714
:1021D000207840073FF552AE7DE500BF012501267E
:1021E000207880063FF560AE7AE500BF0125012723
:1021F000207840063FF570AE77E500BF0125012647
:10220000207800063FF580AE74E500BF0125012768
:10221000206801077FF590AE71E500BF201D012108
:1022200003F0BAF80546002D2F467FF423AED8F808
:102230002800616F20F0070000250843C8F8280037
:102240003746207840077FF546AD17E6201D01216F
:1022500003F0A2F80546002D2E467FF421AED8F8F3
:102260002C00D4F8901020F0070000250843C8F88F
:102270002C003E46207880067FF532AD14E600BF84
:10228000201D002103F088F80546002D2F467FF41D
:102290001FAED8F82800D4F88C1020F0E0400025BC
:1022A0000843C8F828003746207840067FF51DAD62
:1022B00012E600BF201D002103F06EF80546002D38
:1022C0002E467FF41DAED8F82C00D4F8981020F4D8
:1022D000E05000250843C8F82C003E462078000650
:1022E0007FF508AD10E600BF201D002103F054F873
:1022F0000546002D2F467FF41BAED8F82C00D4F8ED
:102300009C1020F4604000250843C8F82C00374694
:10231000206801077FF510AEF1E400BFD4F8B000EB
:102320004FF6CF7358F81C2CC0F2FF0300F4407135
:1023300022F47C5203EA10136FF31F30B1F5407F93
:1023400008BF1A43002548F81C2CD8F8441008434D
:10235000C8F84400FFF785BC2DE9F04381B00028A0
:1023600000F0208142F200090446C5F20029D9F8A4
:10237000000000F00F0088420DD2D9F8000020F0D4
:102380000F000843C9F80000D9F8000000F00F0062
:10239000884240F00781206844F218464207C5F69B
:1023A00002060AD52269336803F070039A4204D901
:1023B000336823F070031A43326002070AD562695A
:1023C000736803F070039A4204D9736823F07003B2
:1023D0001A437260C2060AD5A269736803F4E06307
:1023E0009A4204D9736823F4E0631A437260820648
:1023F0000AD5E269B36803F070039A4204D9B3685E
:1024000023F070031A43B26010F002020AD0E368AE
:10241000376807F00F07BB4204D9376827F00F076A
:102420003B433360C3073FD0306820F47062D4E987
:1024300001031A433260012856F8182C0AD00328E9
:1024400004D002280AD192030BD4ABE0920108D445
:10245000A8E000BFD20504D4A4E000BF520740F1B9
:10246000A180884656F8081C21F00701084346F869
:10247000080CFEF7D1FE054641F2883756F8080CE5
:10248000616800F03800B0EBC10F09D0FEF7C4FE60
:10249000401BB842F2D9032001B0BDE8F08300BF71
:1024A0002068414600F0020252B1E268336803F04E
:1024B0000F039A4204D2336823F00F031A433260A9
:1024C000D9F8002002F00F028A420CD9D9F8002076
:1024D00022F00F020A43C9F80020D9F8002002F0C8
:1024E0000F028A425ED141070AD52169326802F0A3
:1024F0007002914204D2326822F0700211433160BE
:1025000001070AD56169726802F07002914204D233
:10251000726822F0700211437160C1060AD5A16988
:10252000726802F4E062914204D2726822F4E062BE
:102530001143716080060AD5E069B16801F070014D
:10254000884204D2B16821F070010843B06000F005
:10255000E3F8316847F29452C0F60002C1F3032158
:10256000515C336803F00F0301F01F01D25C20FAC5
:1025700001F102F01F0040F22002C2F2004221FAF3
:1025800000F0106040F2180040F21C02C2F200405D
:10259000C2F200420068116001B0BDE8F043FEF7EE
:1025A00087BE00BF012001B0BDE8F083000000003D
:1025B0003F22026044F21842C5F6020252F8083C7B
:1025C00003F007034360136803F4706383601368C8
:1025D00003F00F03C360136803F0700303615368D3
:1025E00003F070034361536803F4E063836192680E
:1025F00002F07002C26142F20000C5F200200068E1
:1026000000F00F000860704780B500F085F844F2D4
:10261000184147F29453C5F60201C0F600030A6858
:10262000C2F303229A5C096801F00F0102F01F0255
:10263000595C20FA02F201F01F0040F22001C2F2C0
:10264000004122FA00F0086040F21C01C2F2004191
:102650000A6080BD0000000080B500F05DF844F223
:10266000184C47F29453C5F6020CC0F60003DCF890
:102670000020C2F303229A5CDCF8001001F00F0185
:1026800002F01F02595CD04040F22002C2F2004228
:1026900001F01F0120FA01F1116040F21C02C2F2A8
:1026A00000421060DCF80400C0F30210185C00F077
:1026B0001F0021FA00F080BD80B500F02DF844F233
:1026C000184C47F29453C5F6020CC0F60003DCF830
:1026D0000020C2F303229A5CDCF8001001F00F0125
:1026E00002F01F02595CD04040F22002C2F20042C8
:1026F00001F01F0120FA01F1116040F21C02C2F248
:1027000000421060DCF80400C0F30220185C00F006
:102710001F0021FA00F080BD44F20041C5F602011D
:102720000869C0F3C200032816D002280ED098BB57
:102730000868800649F20000C0F2D03058BF7047E8
:102740000968C1F3C101C840704700BF47F64000A7
:10275000C0F27D10704700BF8A6A886AC0F3051C0A
:10276000C86ABCF1000F4B6B1CD000F00100404266
:1027700000EAD3006FF35F3000EE100A02F00300AE
:102780000228B8EE400A0FD090B90868800613D42A
:102790009FED251A1DE000BF40F60010C0F23D007D
:1027A000704700BF002070479FED1E1A11E000BF68
:1027B0009FED1B1A0DE000BF086849F20002C0F24D
:1027C000D032C0F3C10022FA00F001EE100AB8EED8
:1027D000411A086B9FED153A6FF35F2002EE100A65
:1027E000086BC0F34620B8EE422A013000EE032AFF
:1027F00000EE10CAB7EE003AB8EE400A81EE000AC9
:1028000032EE031A20EE010A01EE100AB8EE411A68
:1028100080EE010ABCEEC00A10EE100A704700BF3D
:102820000024744A20BCBE4B0024744C00000039C4
:1028300070B3F0B581B00446007844F20046C0079A
:10284000C5F6020626D12078800740F1AC803069B9
:1028500010F03801B06A3FD0182908BF5FEA8070D5
:102860003AD0E0683168002854D021F019010843BB
:102870003060FEF7D1FC05463068400733D4FEF7E0
:10288000CBFC401B0228F7D9032001B0F0BD00BFEC
:1028900001207047306900F03801B06A102905D076
:1028A00018290BD100F00300022807D130688003FB
:1028B000C9D560680028C6D134E100BF61683068BE
:1028C000002941D0B1F5A02F36D0B1F5803F51D1CC
:1028D00040F4803054E000BF3068400703D5E06822
:1028E000002800F01F81FEF78FFC41F203018842AF
:1028F00008D820697168402821F47C3150D141F416
:1029000000304FE07068216920F0FE4040EA01602D
:1029100048E000BF21F001003060FEF77DFC054675
:10292000306840073FD5FEF777FC401B02284FF088
:102930000300F5D901B0F0BD40F48020306030686C
:1029400040F480301CE000BF20F4803030603068FC
:1029500020F480203060FEF75FFC0546306880037D
:102960007FF571AFFEF758FC401B64284FF0030061
:10297000F4D9DFE720F480303060306820F4802024
:102980003060FEF749FC0546306880033FF55BAFD9
:10299000FEF742FC401B6428F6D9032001B0F0BDCD
:1029A00041EA003070602078C00654D5306900F0EC
:1029B0003801B06A082905D0182919D100F00300A0
:1029C000012815D13068C00503D5E069802840F0A2
:1029D000A980FEF719FC41F2030188421ED8206A43
:1029E0007168202821F0F84132D141F0804031E077
:1029F000E0690028306819D040F080003060FEF7B0
:102A00000BFC05463068C005E3D4FEF705FC401B0F
:102A10000228F7D9032001B0F0BD00BFF068216A99
:102A200020F07C5040EA0160F06014E020F080006B
:102A30003060FEF7F1FB05463068C0050BD5FEF7A8
:102A4000EBFB401B02284FF00300F5D972E700BFF3
:102A500041EA806070602078000737D420788006D3
:102A60004AD42078400761D4656A65B3306900F0C4
:102A70003800182840F0A080012DB16A306B51D089
:102A800001F00302A36A9A424CD1C1F30511E26A34
:102A9000914247D10146226B6FF35F21013A914287
:102AA00040D1C0F34622616B01398A423AD1C0F36A
:102AB0000642A16B01398A4234D1C0F30660E16B52
:102AC000013988422ED1002001B0F0BD6069002894
:102AD000706F41D040F001007067FEF79DFB054626
:102AE000706F8007BAD4FEF797FB401B0228F7D916
:102AF000032001B0F0BD00BFA0690028306849D0B4
:102B000040F480503060FEF787FB05463068800453
:102B1000A7D4FEF781FB401B0228F7D9032001B0A0
:102B2000F0BD00BF012001B0F0BD00BFD6F8000429
:102B300040F48070C6F80004FEF76EFB054600BF47
:102B4000D6F80004C00519D4FEF766FB401B6428C4
:102B5000F6D9032001B0F0BD20F001007067FEF748
:102B60005BFB0546706F80077FF578AFFEF754FB7F
:102B7000401B0228F6D9032001B0F0BDA168306FD8
:102B8000002943D0052939D0012957D140F001004F
:102B90005AE000BF20F480503060FEF73DFB054650
:102BA000306880047FF55DAFFEF736FB401B0228DE
:102BB0004FF00300F4D9BDE6306820F0807030603B
:102BC000FEF72AFB022D05460CD100BF30688001BC
:102BD0004CD5FEF721FB401B02284FF00300F5D92E
:102BE000A8E600BF306880017FF56DAFFEF714FBEB
:102BF000401B02284FF00300F4D99BE640F004008C
:102C00003067306F40F001001EE000BF20F001008F
:102C10003067306F20F004003067FEF7FDFA05469C
:102C200041F28837306F80077FF51EAFFEF7F4FA68
:102C3000401BB8424FF00300F4D97BE620F00100BE
:102C40003067306F20F004003067FEF7E5FA054684
:102C500041F28837306F80073FF506AFFEF7DCFAA8
:102C6000401BB8424FF00300F4D963E604F1280793
:102C7000B06A40F2F33188438ECF0843591E40EAD0
:102C800002104FF47E426FF35F21B06202EB4720E7
:102C90004FF4FE0280B2E36B0844A16B02EB0141EA
:102CA0004FF0FE4201F4FE0102EB0362084402F021
:102CB000FE4108443063F06A4FF6F87120F00100DD
:102CC000F062706BA26C884340EAC2007063F06AE5
:102CD000216C20F00C000843F062F06A616C20F077
:102CE00002000843F062F06A40F48030F062F06A5B
:102CF00040F40030F062F06A40F48020F062F06A44
:102D000040F00100F062306840F080703060FEF703
:102D100083FA0446306880013FF5D5AEFEF77CFAB1
:102D2000001B02284FF00300F4D903E60000000066
:102D3000002800F083802DE9F04143F6000401688B
:102D4000C4F2000443F2000E43F6004CA142C4F268
:102D5000010EC4F2000C4FF00002826203D0614504
:102D600018BF71457CD1C26B0125C368A14203F134
:102D7000080305EB52124FEAD30303FB02F218BF1C
:102D800071455DD1102A6FD890F8811031B90021BA
:102D900080F88010044600F083F82046022180F875
:102DA00081100168D0F818C00B68BCF1806F23F067
:102DB00001030B6009D14368B3F5800F05D1836B24
:102DC0001BB90B6843F480530B60C369856A2B43BE
:102DD000C56B1D43D0E90328D0E9013E2A438A6030
:102DE000426B846B456A42EA0502056A42EA0402C4
:102DF000446942EA080242EA0402D0E9127642EA51
:102E0000050242EA0602866D42EA0E0242EA070223
:102E100042EA060242EA0C0242EA0302CA603BB3FB
:102E20000A6D5B0222F001020A652FD5CA68436D64
:102E300022F000421A43CA6028E000BF0120704718
:102E4000614518BF082A0FD80CF57443994299D0F0
:102E5000614599D1102A84BF0120BDE8F08193E734
:102E6000C2680F2A7FF67FAF0120BDE8F08100BF66
:102E70008A68012363F3CC228A608A68022363F3A1
:102E80004A228A600A6D22F001020A650021C0F818
:102E90008410012180F881100020BDE8F08100003D
:102EA0002DE9F04186B043F200420068C4F201020D
:102EB000002190420591CDE90311029101916FD05B
:102EC00043F60041C4F20001884243D043F60001BA
:102ED000C4F20001884240F08B8044F2E04040F6AA
:102EE0000004C5F60200C5F6020402254FF00008F2
:102EF0008168032741F4804181608168052601F4DF
:102F0000804100910099016841F00401016001686D
:102F100001F0040100910099016841F00201016093
:102F2000006801A900F00200009000982046CDE959
:102F30000155CDF80C8004970596FEF779F801A9A4
:102F40004FF4C040CDE9047681E82101A4F580600A
:102F50004BE000BF44F2E040C5F60200816841F456
:102F600000418160816801F400410091009901688D
:102F700041F004010160006800F004000090009836
:102F80004FF4E050019002200290002003900320B3
:102F900004900620059040F60000C5F6020024E0EB
:102FA00044F2E040C5F60200026942F400520261B8
:102FB000026902F400520092009A026842F0100284
:102FC0000260006800F0100000900098242001903A
:102FD0000220CDE9020140F600010320C5F60201FE
:102FE00004900520059001F5006001A9FEF720F886
:102FF00006B0BDE8F08100002DE9F04F81B0044635
:1030000090F88000012827D01F4615460E46D4F8B8
:103010000090012084F88000FEF7FEF894F88110FB
:10302000804601290CD11EB1002D18BF002F17D1E9
:10303000002084F88000012001B0BDE8F08F00BFBF
:103040006068B0F5800F04D1042902D1A06800287F
:10305000E9D0002084F88000022001B0BDE8F08FA4
:1030600094F88100042802D0052084F88100002112
:10307000C4F8841065664FF6FF73A4F86A70A4F86C
:103080006870E665A4F86270D4E90002A4F8607084
:10309000B2F5800F21676167416821EA0301394475
:1030A0004160016841F00101016003D1016841F410
:1030B00000710160E068DDF828B0102838D31BF1FA
:1030C000010000F01F8148F208053E4607E000BFFE
:1030D000FEF7A2F8A0EB0800584580F0008157EAFF
:1030E000060000F049812068002F416918BF11F0E7
:1030F00002010BD0E16D51F8042B0262E165B4F8D6
:1031000062100139A4F86210B4F862704169294272
:1031100018BF002EDCD0006B616E41F8040B6166B5
:10312000B4F86A000138A4F86A00B4F86A60CFE71E
:1031300007284FF6FE7A57D90AF1010A3E4600BF2A
:1031400057EA060000F018812068002F416918BF77
:1031500011F002011AD0012F0AD9E16B0029E16DAB
:1031600007D051F8042B02624FF6FE7206E000BF52
:10317000E16D31F8022BA9F820205246E165B4F840
:1031800062101144A4F86210B4F86270416911F43D
:10319000604F18BF002E05D1FEF73EF81BF101016C
:1031A0001DD1CDE74169090406D4B9F83010606E2D
:1031B00020F8021B514605E0016B606E40F8041BCD
:1031C0004FF6FE716066B4F86A000844A4F86A001D
:1031D000B4F86A60FEF720F81BF10101B0D0A0EB53
:1031E00008005845ACD37AE03E4600BF57EA0600D7
:1031F00000F0C2802068002F416918BF11F0020161
:103200002BD0042F0CD3E26B412AE16D0CD351F883
:10321000042B0262E165B4F86210043919E000BFC2
:10322000012F0BD9E26BE16D4AB131F8022BA9F8FD
:103230002020E165B4F8621002390AE0E16D0978F6
:1032400080F82010E06D0130E0652068B4F862106D
:103250000139A4F86210B4F86270416911F4604F4A
:1032600018BF002E06D1FDF7D7FF1BF1010131D1A8
:10327000BCE700BF416909040ED4416901F4C041B3
:10328000B1F5005F10D9B9F83010606E20F8021B5C
:103290004FF6FE7110E000BF016B606E40F8041B3A
:1032A000AAF1020108E000BF90F83000616E0870DA
:1032B0000AF10101606E01306066B4F86A000844EA
:1032C000A4F86A00B4F86A60FDF7A6FF1BF10101DB
:1032D0003FF48CAFA0EB08005845FFF487AF2046C1
:1032E00003F036F8002084F88000D4F8840040F41D
:1032F0008070C4F88400012084F8810001B0BDE82A
:10330000F08F00BF012048F2080501223E460CE084
:10331000FDF782FF46EA070132463846002E18BF05
:103320000122002F18BF012031B32168D2074A695A
:1033300018BF12F002020BD0E26D52F8043B0B6290
:10334000E265B4F86220013AA4F86220B4F8626041
:103350004A692A4018BF012210400128D8D1086BC1
:10336000616E41F8040B6166B4F86A000138A4F894
:103370006A00B4F86A70CBE71BF1010014D000BFFB
:1033800020684069000713D4FDF746FFA0EB080052
:103390005845F5D3D4F8840040F02000C4F88400E8
:1033A00006E000BFFDF738FF206840690007F9D547
:1033B000204602F0CDFF002084F88000012084F830
:1033C0008100D4F88400002818BF012001B0BDE8B6
:1033D000F08F0000000000007047000000000000B7
:1033E000704700000000000070470000000000006F
:1033F00060B310B5044690F83D0028B9002084F869
:103400003C00204600F024F8022084F83D002068AB
:10341000211D03F0ADF9012084F8480084F83E0036
:1034200084F83F0084F8400084F8410084F84200AA
:1034300084F8430084F8440084F8450084F846008A
:1034400084F8470084F83D00002010BD012070473B
:10345000704700000000000090F83D10012913D1D2
:10346000022180F83D1001680722C0F20102C868FD
:1034700040F00100C860886802400020062A18BF9A
:10348000B2F5803F02D1704701207047086840F0D4
:103490000100086000207047704700000000000035
:1034A00010B5044600680169890744BFC1685FEA36
:1034B00081713FD40169490744BFC1685FEA417126
:1034C00044D40169090744BFC1685FEA01714BD464
:1034D0000169C90644BFC1685FEAC16150D401698E
:1034E000C9071CBFC1685FEAC17157D101690906EC
:1034F00044BFC1685FEA016158D40169C90544BF8E
:10350000C1685FEA016159D40169490644BFC168D5
:103510005FEA41615AD40169890646BFC1685FEA22
:10352000816110BD6FF0200101612046BDE81040AF
:10353000FFF75ABF6FF00201016101212177806915
:1035400080074BD02046FFF7A7FF4DE06FF0040146
:10355000016102212177806910F4407F48D0204624
:10356000FFF79AFF4AE000BF6FF0080101610421F4
:103570002177C069800745D02046FFF78DFF47E0DF
:103580006FF01001016108212177C06910F4407FBC
:1035900042D02046FFF780FF44E000BF6FF00101FA
:1035A0000161204600F04CF820689FE76FF0800131
:1035B00001612046FFF714FF20689EE76FF48071D9
:1035C00001612046FFF708FF20689DE76FF040018A
:1035D0000161204600F040F820689CE7204600F09A
:1035E00027F8204600F028F800202077206861E7BF
:1035F000204600F01DF8204600F01EF8002020773D
:1036000020685EE7204600F013F8204600F014F82A
:103610000020207720685BE7204600F009F820466C
:1036200000F00AF800202077206858E7000000002A
:10363000704700000000000070470000000000001C
:1036400041F200010068C4F20001884218BF7047CF
:10365000FDF7EABD00000000704700000000000018
:1036600090F87C10012901D1022070472421C0F874
:10367000801001680A680B6822F0005223F00103F1
:103680000B60002343660A602021C0F8801080F898
:103690007C300020704700007047000000000000F0
:1036A00090F87C20012A01D10220704770B52422B5
:1036B000C0F880200268D0F864E0BEF1000FD2F8B4
:1036C00000C0136823F001031360936823F0606364
:1036D00041EA0301916019D0916847F2BC5E93689A
:1036E000C0F6000E5B0F47F2C455C1F34266C0F648
:1036F00000051EF80340E95C2301B3FBF1F11EF85D
:103700000630AE5D1B01B3FBF6F301E0012101239E
:10371000A0F86A102021A0F86830C2F800C0C0F8F4
:103720008010002180F87C10002070BD0000000097
:1037300090F87C20012A01D10220704770B5242224
:10374000C0F880200268D0F864E0BEF1000FD2F823
:1037500000C0136823F001031360936823F06043F3
:1037600041EA0301916019D0916847F2BC5E936809
:10377000C0F6000E5B0F47F2C455C1F34266C0F6B7
:1037800000051EF80340E95C2301B3FBF1F11EF8CC
:103790000630AE5D1B01B3FBF6F301E0012101230E
:1037A000A0F86A102021A0F86830C2F800C0C0F864
:1037B0008010002180F87C10002070BD0000000007
:1037C000704700000000000070470000000000008B
:1037D00010B5044600684FF6FE720168CEF67F729F
:1037E00021F4F071016081681140816081680906EF
:1037F0000FD5816821F080018160606F48B10021A0
:103800000165FDF721F820B1606FFDF70DFC202860
:1038100013D020688168490614D5816821F04001E1
:103820008160A06F70B100210165FDF70DF848B10E
:10383000A06FFDF7F9FB202804D103201021C4F864
:10384000881010BD0020A4F85600A4F85E0020687F
:10385000616EB1F1005F4FF00F01016203D1816928
:1038600041F010018161816941F0080181612020EE
:10387000C4F88000C4F8840000200021C4F8881037
:1038800010BD00000000000040F6105140F6286214
:10389000C2F20041C2F200420223904208BF01235B
:1038A000411A18BF1946022917D0B0B540F2880254
:1038B0000446C2F2004202EB810501EB4101AB6913
:1038C00002EB8101012268310133AB6100F064FA3F
:1038D000014620462963BDE8B04001F011BA00005E
:1038E00010B502684FF6FE73CEF6FF73116821F42F
:1038F000907111609168194091609168490607D4F0
:103900000021A0F85E1081650F21116220E000BF48
:10391000916821F040019160816F79B1044646F6CB
:10392000A920C0F6000008650846FDF721FAA0B1FD
:10393000A06F016D8847002010BD00BF0021A0F8D6
:103940005E1081650F211162916941F0080191615A
:103950002021C0F88410FFF797FF002010BD000061
:10396000B0B5044640F6105040F62861C2F200405F
:10397000C2F2004102228C4208BF0122201A18BF65
:10398000104602280FD040F28801C2F2004101EB3C
:103990008005286901302861204600F009F8286276
:1039A0002046FFF79DFF2046BDE8B04001F0C8B9B2
:1039B000D0F888007047000070B5016840F62F020B
:1039C000CB690E681A408C68202A0DD106F02002BF
:1039D00004F08055521919D0C16E002900F0C18041
:1039E000BDE87040084700BF40F60F0213420DD0FB
:1039F000012240F22015C1F20002C0F2004504EAA3
:103A0000020C06EA050212EB0C0225D1DA0209D5F6
:103A100014F4800206D04FF480120A62BDE87040B0
:103A2000FFF7D2BE1A0605D506F0800204F40005A1
:103A3000521925D15A0619D516F0400216D00A6837
:103A400022F040020A602021C0F8801000210167A6
:103A5000BDE8704000F03CBBDA0718BF16F4807276
:103A60001ED19A0704F0010E26D430E019020DD5BC
:103A700016F080410AD0BDE87040FFF7A1BE00BF3C
:103A8000016F00296DD0BDE870400847D90168D5A5
:103A9000B6F1FF3FC8BF70BDBDE87040FFF7FCBD89
:103AA00001220A62D0F8882042F00102C0F8882082
:103AB0009A0704F0010E0AD5BEF1000F07D00222CA
:103AC0000A62D0F8882042F00402C0F888205A0721
:103AD0000AD5BEF1000F07D004220A62D0F8882070
:103AE00042F00202C0F888201A070CD506F0200226
:103AF00052EA0C0207D008220A62D0F8882042F06D
:103B00000802C0F888201A050BD516F0806208D08C
:103B10004FF400620A62D0F8882042F02002C0F818
:103B20008820D0F88820E2B19A060BD506F0200252
:103B300004F08053D21805D0C26E1AB104469047E3
:103B400020462168D0F888208B6803F0400302F0FB
:103B50002802D21806D10446FFF702FF0020C4F85D
:103B6000880070BD0A684FF6FE7322F490720A60F6
:103B70008A68CEF6FF731A408A602022C0F884203B
:103B80000022C2668A68520616D58A6822F0400270
:103B90008A60816F81B146F6992204460846C0F6D4
:103BA00000020A65FDF7E4F80028DAD0A06F016D85
:103BB000BDE87040084700BFBDE87040FFF7D0BEC9
:103BC00010B5A8B10446D0F8800028B9002084F8C8
:103BD0007C00204600F028F82420C4F880002068EB
:103BE000016821F001010160204603F079F808B175
:103BF000012010BDA06A10B1204602F069FE2068C5
:103C0000416821F490414160816821F02A0181607E
:103C1000016841F0010101602046BDE8104002F05A
:103C2000C7BE00000000000010B586B047F2FF726A
:103C30000068C4F20002002190420591CDE9031111
:103C4000CDE9011126DC44F20041C4F200018842B2
:103C50004ED044F60001C4F20001884240F0988042
:103C600044F2E0402724C5F60200816841F4802137
:103C70008160816801F4802100910099016841F020
:103C800008010160006800F00800009000984FF4FF
:103C9000407045E047F60001C4F20001884245D07B
:103CA00041F20001C4F20101884271D144F2E040C6
:103CB0002524C5F60200016941F010010161016986
:103CC00001F0100100910099016841F001010160CB
:103CD000006800F00100009000984FF4C06001906F
:103CE00040F60040C5F60200A0F540603EE000BF8F
:103CF00044F2E0402624C5F60200816841F4003118
:103D00008160816801F4003100910099016841F0FF
:103D100008010160006800F0080000900098602031
:103D2000019040F60040C5F602001FE044F2E0407A
:103D30005224C5F60200816841F0804181608168AB
:103D400001F0804100910099016841F0100101608B
:103D5000006800F01000009000984FF4C0700190CF
:103D600040F60040C5F6020000F580600221029195
:103D70000021CDE903110721059101A9FDF758F9AB
:103D8000052100222046FDF723FB2046FDF70CFB12
:103D900006B010BD00000000D0F88430202B0BD1FD
:103DA0000123002918BF002A02D11846704700BF1E
:103DB00090F87C30012B01D10220704710B581654D
:103DC000A0F85C20A0F85E20D0F808E0BEF1000F5B
:103DD0000ED0BEF1805F07D0BEF5805F0ED10369C3
:103DE00053B940F2FF130AE003691BB13F2306E019
:103DF00003690BB17F2302E0FF2300E00023A0F85A
:103E000060300023C0F888302223C0F88430D0F816
:103E100000C0416E6346B1F1005F53F8084F44F0B3
:103E20000101196003D1B0F86810914210D9BEF5B4
:103E3000805F01D1016949B346F6D131C0F6000176
:103E4000C166002180F87C104FF49070634614E046
:103E5000BEF5805F01D10169F1B146F63141C0F68E
:103E60000001C166002180F87C10DCF8000040F4FD
:103E70008070CCF800004FF080501968084318603B
:103E80000023BDE810401846704700BF46F6C92120
:103E9000C0F60001D4E700BF46F62931C0F60001A4
:103EA000DFE700000000000040F6105140F62862F5
:103EB000C2F20041C2F200420223904208BF012335
:103EC000421A18BF1A46022A39D070B540F288014A
:103ED00002EB4204C2F20041002601EB820E01EB2C
:103EE0008404DEF8083021460133CEF8083011F89A
:103EF00068CFCEF828C034F8603F01339DB2B6EBEE
:103F0000552F18BF002365889EB2AE4206D1DEF859
:103F100038200132CEF838200AE000BF41F25405C3
:103F20002688C2F2004505EB422202F806C0238033
:103F300001220446FFF730FF2046BDE8704000F044
:103F40002BBF0000000000002DE9F04182B00446C4
:103F5000D0F8800020280DD10F460120002918BF7D
:103F6000002A03D102B0BDE8F08100BF94F87C00C4
:103F7000012803D1022002B0BDE8F0811D460120D6
:103F800084F87C000020C4F888002120C4F8800058
:103F90001646FDF741F9A4F854608046A4F856602F
:103FA000A168B1F5805F01D12069B8B33E46002712
:103FB000002084F87C0008E0206816F8011B81626C
:103FC000B4F856000138A4F85600B4F8560088B189
:103FD0008021002220464346009503F065F988B908
:103FE000002EE9D137F8020B216800266FF35F201D
:103FF0008862E5E74021002220464346009503F011
:1040000053F918B1032002B0BDE8F0812020C4F8B4
:104010008000002002B0BDE8F08100BF0026C7E7A5
:10402000D0F88030202B0BD10123002918BF002AA3
:1040300002D11846704700BF90F87C30012B03D1A5
:1040400002231846704700BF01650021A0F85420E4
:10405000A0F85620C0F888102121C0F88010416EC9
:10406000B1F1005F816811D1B1F5805F01D10169C3
:1040700001B347F24121C0F600010167002180F839
:104080007C10006808304FF400010EE0B1F5805F4D
:1040900001D10169A1B147F20121C0F60001016718
:1040A000002180F87C1000688021026811430160C3
:1040B0000020704747F29911C0F60001DDE700BF0C
:1040C00047F25911C0F60001E9E7000000000000C6
:1040D00040F6105140F62862C2F20041C2F200429E
:1040E0000223904208BF0123411A18BF1946022932
:1040F00008BF7047C8B2420052FA81F140F288020C
:10410000C2F2004202EB810152F82030013342F842
:104110002030002281F86A2001F002BB000000007C
:10412000FEE700000000000010B540F2601440F609
:10413000B461C2F2004440F20002C2F20041C2F295
:10414000004200202061606140F62863A061C2F255
:104150000043E0614968116040F610512070C2F2DE
:1041600000416070A070E070496851604FF4E13127
:1041700091605B68D360116140F2A051C2F20041CE
:104180002071608120626062A062E0622063A08191
:104190006071E071A1F8FC0340F6A010C2F200408B
:1041A0004FF48571FCF7C3F940F6AA201F21C2F233
:1041B000004000BF4218A1F11F0341547F2902F8BB
:1041C0001F3CA1F11E0302F81E3CA1F11D0302F8E1
:1041D0001D3CA1F11C0302F81C3CA1F11B0302F8D9
:1041E0001B3CA1F11A0302F81A3CA1F1190302F8D1
:1041F000193CA1F1180302F8183CA1F1170302F8C9
:10420000173CA1F1160302F8163CA1F1150302F8C0
:10421000153CA1F1140302F8143CA1F1130302F8B8
:10422000133CA1F1120302F8123CA1F1110302F8B0
:10423000113CA1F1100302F8103CA1F10F0302F8A8
:104240000F3CA1F10E0302F80E3CA1F10D0302F8A0
:104250000D3CA1F10C0302F80C3CA1F10B0302F898
:104260000B3CA1F10A0302F80A3CA1F1090302F890
:10427000093CA1F1080302F8083CA1F1070302F888
:10428000073CA1F1060302F8063CA1F1050302F880
:10429000053CA1F1040302F8043CA1F1030302F878
:1042A000033CA1F1020302F8023C01F12003A1F159
:1042B000010102F8011C19467FF47CAF0020606305
:1042C0000121217240F29C110122C2F200410870CA
:1042D000A1F8000440F6B46001F20241C2F20040CD
:1042E000FFF75AFDA07110BD2DE9F04782B0FCF731
:1042F00093FF40F260160446C2F20046F1790029AD
:1043000000F0BD8040F2A050EFF3108172B6C2F20F
:1043100000400221B0F8FC23F17162B6062A37D9B9
:1043200001888779D0F802304BF2111549BAA942B9
:104330001BBA718133622BD1102FA2F107013BD040
:10434000112F25D1A3F58032053A162A00F25881A3
:104350004FF00108DFE812F0180054015401540135
:104360005401540154015401540154015401740086
:1043700054015401540154016E005401540154017C
:1043800054015401720000BF4FF0020858E000BF12
:10439000B06910440530B0613069002800F06580D4
:1043A000B06944F24021C0F20F013269A0FB010163
:1043B0000023FBF7F7FF59E08AB2022A36D1C2790F
:1043C000012A33D1A3F580318A1F272A00F29C816C
:1043D0000121DFE812F02900990199019901990161
:1043E0009901990199019901990199018A0199010C
:1043F0009901990199018101990199019901990105
:1044000099018901990199019501990199019901F0
:1044100099019901990199019901990199019901CC
:1044200099019901830100BF02215EE1B06910FA90
:1044300081F014E04FF0030802E000BF4FF00408E1
:104440001FFA81F9B9F1000F00F0BC80C179A1F128
:104450003A0212F10A0F80F0B780B0694844073081
:10446000B061306900287FF49BAF0020F06101202B
:104470003072EFF3108072B60020F07162B640F631
:10448000A015C2F2004500BF0020294601F0CCF97A
:10449000012804D0002001F0A7F80028F4D18535C8
:1044A0000120294601F0C0F9012804D0012001F0C3
:1044B0009BF80028F4D13079F8B1706B201AB0F570
:1044C0007A7F1AD37463307850B140F6AA23002063
:1044D000C2F2004301215522C827009701F040FB9A
:1044E000B07850B140F6AA230120C2F20043012166
:1044F0005522C827009701F033FB307A40B30020E3
:1045000030720225706AC0F201050130706205F157
:10451000090105F10A0205F10B03012000F0E0F9A1
:1045200090B905F10C0205F110030220294600F0B4
:10453000D7F948B905F1110105F1150205F1160386
:10454000032000F0CDF978B3B46302B0BDE8F08782
:10455000B06B201AB0F57A7F23D3B4630224706A5B
:10456000C0F201040130706204F1090104F10A0291
:1045700004F10B03012000F0B3F990B904F10C022F
:1045800004F110030220214600F0AAF948B904F111
:10459000110104F1150204F11603032000F0A0F943
:1045A000D0B302B0BDE8F08705F1170105F11B0299
:1045B00005F11C03042000F093F9B46302B0BDE8D8
:1045C000F08700BF07201EE0B9F1010FA1F1300113
:1045D0002ED1B1F5614F71DBB1F5E12FC0F29C80B6
:1045E00044F23F20C0F20F00814200F3A780B1F5F2
:1045F000E12F00F0B080B1F5612F00F0AC802CE726
:10460000072010FA81F0B1690844B06130690028D0
:104610007FF4C6AE29E700BF04F1170104F11B02C5
:1046200004F11C03042002B0BDE8F04700F058B9C3
:10463000A9F1010CC9F1000E4FF0000A00EB0A07C6
:104640003B7AA3F13A0212F10A0FC2D301EB8101C6
:104650000EEB0A0203EB4101931CA1F13001B8D02B
:104660007B7AA3F13A0515F10A0FB2D301EB810170
:1046700003EB4101D31CA1F13001AAD0BB7AA3F115
:104680003A0515F10A0FA4D301EB8101043203EBC3
:104690004101A1F130019CD0FA7AA2F13A0313F161
:1046A0000A0F96D301EB81010AF1040AD44502EB0B
:1046B0004101A1F13001C1D18BE700BFB1F5165F17
:1046C00034DAB1F5966F18BFB1F5166F43D0B1F576
:1046D000965F40D0C1E600BF032106E0007A98B99A
:1046E00000203071C3E600BF0421007A02280BD2FB
:1046F0000139DFE801F003736F7100BF3070B6E677
:10470000007A002800F08880B0690930B061306913
:1047100000287FF445AEA8E6B1F5614F18BFB1F5AA
:10472000E13F18D0B1F5613F15D096E618BFB1F55D
:10473000964F10D0B1F5164F0DD08EE644F24020C2
:10474000C0F20F00814206D048F28040C0F21E0045
:1047500081427FF482AEA8F1010340F20000C2F270
:10476000004000F10802DFE803F003331B3100BF13
:10477000B1F5614F416041DBB1F5E12FC0F27A80C4
:1047800044F23F20C0F20F00814200F39780B1F560
:10479000E12F00F0A080B1F5612F00F09C8066E66B
:1047A000B1F5614FC1601BDBB1F5E12F50DB44F285
:1047B0003F20C0F20F0081426EDCB1F5E12F00F026
:1047C0007880B1F5612F74D051E600BF00F110027E
:1047D00011604CE6B0704AE6F07048E6707046E64C
:1047E000B1F5165F3EDAB1F5966F18BFB1F5166FE9
:1047F0005FD0B1F5965F5CD039E600BFB1F5165FCA
:1048000042DAB1F5966F18BFB1F5166F63D0B1F506
:10481000965F60D02BE600BF0020002500F0E0FF8F
:104820000120012700F0DCFF002000F0F9FE01204C
:1048300000F0F6FE40F28800C2F2004005604560DC
:104840003771FCF7E9FCA0F57A7070630FE600BFE2
:10485000B1F5614F18BFB1F5E13F2AD0B1F5613F25
:1048600027D004E618BFB1F5964F22D0B1F5164F08
:104870001FD0FCE5B1F5614F18BFB1F5E13F2AD07B
:10488000B1F5613F27D0F2E518BFB1F5964F22D0C0
:10489000B1F5164F1FD0EAE548F28040C0F21E0085
:1048A000814206D044F24020C0F20F0081427FF4E2
:1048B000DEAD012001F048FAD9E500BF48F28040A2
:1048C000C0F21E00814206D044F24020C0F20F0028
:1048D00081427FF4CCAD002001F036FAC7E500003C
:1048E0002DE9F04F89B0471E40F2601BC2F2004B29
:1048F0008A460BF10101DFE807F00327255700BFC7
:104900009BF80000002854D040F6A01640F228186A
:1049100040F2001940F28804C2F20046C2F2004898
:10492000C2F20049C2F20044CDE902320020314611
:1049300000F07AFF012830D0002000F055FE00285A
:10494000F4D12AE00BF10201097891B30328CDE9F3
:10495000023233D140F6A01040F22811C2F20040DA
:10496000C2F2004100F1850601F1040840F2001096
:1049700040F28801C2F20040C2F2004100F1040995
:104980000C1D00BF0120314600F04EFF012804D06D
:10499000012000F029FE0028F4D12068D9F8009009
:1049A000D8F8001001910DE00BF1030109780029FE
:1049B000CCD1002009B0BDE8F08F00BF00200190ED
:1049C0004FF0000944F23F2845F6C523C0F20F0816
:1049D000C0F67C234246404538BF024648F2A067F5
:1049E00042F210755109C0F20107A1FB03314FF4E7
:1049F0007A768DF819A0CB0903FB172341F259727F
:104A0000CDF2B7126427A3FB0242540B04FB15330B
:104A100042F2C5049DB2ED0865432C0D04FB16332C
:104A200041F27B449EB2B6086643740C04FB173314
:104A300030240127ADF8177044EAD1118DF81A100F
:104A400044EA5231CD27DAB28DF81B107A4304EBD9
:104A500015578DF81C7044EA5641D70A8DF81D1081
:104A60004BF2EE1544EAD22207EB8701C0F21005A3
:104A7000CDF81350A3EB41018DF81E2041F0300119
:104A80008DF81F106FF440710891DBF82810112287
:104A90000131CBF82810CBF82CA00DF11301CBF885
:104AA00030001120ABF80C0040F6B460C2F20040B8
:104AB0006423FFF749FA8BF805009BF8050028B13D
:104AC0009BF8050058B109B0BDE8F08FDBF8140081
:104AD0001130CBF814009BF805000028F3D14146B3
:104AE000C14538BF494645F6C52248F2A06348098A
:104AF000C0F67C22A0FB0220C0F2010342F2107734
:104B00004FF47A76C209642402FB131241F2597100
:104B1000CDF2B711CDF81350A2FB01314B0B03FBC3
:104B2000172242F2C50793B2DB087B431F0D07FB38
:104B3000162241F27B4697B2BF0877430126ADF8B3
:104B400017607E0C06FB1422302646EAD0108DF842
:104B50001A00D0B2CD24604346EA51318DF81B10C3
:104B600006EB13518DF81C10C10A46EAD0208DF8CF
:104B70001E0001EB810146EA57438DF81D30A2EB80
:104B80004100039B8DF8193040F030008DF81F0074
:104B90006FF4407008900DF11301DBF8280011222A
:104BA0000130CBF82800CBF82C301120CBF8309016
:104BB0006423ABF80C0040F6B460C2F20040FFF78B
:104BC000C3F98BF805009BF8050028B19BF8050098
:104BD00000287FF478AF09E0DBF814001130CBF83F
:104BE00014009BF8050000287FF46DAFDDF804C0C9
:104BF00045F6C521C445C0F67C2138BFE04648F2E1
:104C0000A06242F210774FEA5810C0F20102A0FBF6
:104C100001104FF47A76CDF813506424C10901FBDA
:104C2000128241F25971CDF2B711A2FB01314B0B47
:104C300003FB172242F2C50793B2DB087B431F0D2B
:104C400007FB162241F27B4697B2BF087743012645
:104C5000ADF817607D0C05FB1422CD243025D6B2AB
:104C600045EA513166438DF81B1045EAD0108DF8A6
:104C70001A00F10A05EB13508DF81C0001EB8100BE
:104C8000029B8DF8193045EA5747A2EB40008DF89A
:104C90001D7045EAD6218DF81E1040F030008DF8C9
:104CA0001F006FF440700890DBF828000DF113012D
:104CB0000130CBF82800CBF82C301120CBF830C0D5
:104CC0001122ABF80C0040F6B460C2F2004064233D
:104CD000FFF73AF98BF805009BF8050020B19BF827
:104CE000050009B0BDE8F08FDBF814001130CBF8F7
:104CF00014009BF8050009B0BDE8F08F000000002B
:104D000040F6B461C2F20041884218BF704780B5D6
:104D100040F29C100122C2F2004000F2024140F633
:104D2000B460C2F20040FFF737F840F26011C2F2FF
:104D300000418871BDE8804070470000000000001D
:104D400040F6B461C2F20041884218BF704710B506
:104D500040F26014C2F20044A0690130A0612069F1
:104D600060B1A06944F24021C0F20F012269A0FBAA
:104D700001010023FBF716FB01E000BF002040F615
:104D8000B461E061C2F200410846BDE81040FEF7A0
:104D9000A7BD00000000000040F6B461C2F200416F
:104DA000884218BF7047F0B581B040F29C1540F2C0
:104DB0006014C2F20045C2F2004495F80264206912
:104DC000013020612069B8B1A06944F24021C0F2ED
:104DD0000F012269A0FB01010023FBF7E3FAE06168
:104DE000287801280DD0002840F08780EE2E23D1AE
:104DF0000020A5F8000468E00020E0612878012880
:104E0000F1D1B5F8000440F2FF31884226D3A16900
:104E1000002708440130A061206900284ED0A06915
:104E200044F24021C0F20F012269A0FB01010023DE
:104E3000FBF7B8FA43E000BFA0690130A061206928
:104E4000C0B3A06944F24021C0F20F012269A0FB67
:104E500001010023FBF7A6FAE06152E02844467006
:104E6000B5F80004411CA5F800148AB2042A48D3FE
:104E7000C61E6FF4407115FA86F0D0F80100884222
:104E80003FD1B2B2E07910B9B2F57F7F24D3A069E7
:104E900010440530A0612069D0B1A06944F24021DE
:104EA000C0F20F012269A0FB01010023FBF77AFA8F
:104EB000E06122E00020E06123E000BF0020EE2E50
:104EC000E0612F70A5F800741BD10120287018E054
:104ED0000020E06111E000BF40F2A0573004C2F2B0
:104EE000004706D040F2A050691CC2F20040FBF718
:104EF000D1FAA7F8FC630120E07100202870A5F822
:104F0000000440F6B46005F20241C2F20040012202
:104F1000FEF742FFA07101B0BDE8F040704700000D
:104F20002DE9F04F87B044F2E0400026C5F60200BC
:104F30000696CDE90466CDE90266016840F20008F4
:104F400041F0100101600168C5F6020801F010018E
:104F500001910199016841F080010160016808F543
:104F6000805901F0800101910199016841F004012B
:104F700001600168002201F00401019101990168BA
:104F800041F0020101600168182501F00201019160
:104F90000199016841F008010160016801F0080110
:104FA00001910199016841F0010101600068182137
:104FB00000F00100019001984846FCF71DF908F542
:104FC000806A4FF4104100225046FCF715F908F5AD
:104FD000406B4FF4806100225846FCF70DF908F54C
:104FE00000644FF44071012220460127FCF704F9C8
:104FF0004FF4006100224046FCF7FEF8CDE902576D
:1050000002AD48462946CDE90466FCF711F84FF495
:1050100010402946CDE902075046CDE90466FCF769
:1050200007F84FF480602946CDE902075846CDE9DC
:105030000466FBF7FDFF4FF440702946CDE90207F7
:105040002046CDE90466FBF7F3FF4FF400602946E4
:10505000CDE902074046CDE90466FBF7E9FF07B05A
:10506000BDE8F08F0000000010B540F62C3443F688
:105070000000C2F20044C4F200000F2120604FF48F
:10508000800060600020A060C4E9031060614FF000
:105090008061A1614FF0E041C4E90710C4E9090053
:1050A000E0624FF08040606304F138002421FBF798
:1050B0003EFA2046FDF73CFE002808BF10BDBDE8C3
:1050C0001040FBF7B9BB000010B540F6B43443F60E
:1050D0000040C2F20044C4F200000F2120604FF4EF
:1050E000800060600020A060C4E9031060614FF0A0
:1050F0008061A1614FF0C041C4E90710C4E9090013
:10510000E0624FF08040606304F138002421FBF737
:105110000EFA2046FDF70CFE002808BF10BDBDE8C2
:105120001040FBF789BB000010B540F63C4443F249
:105130000040C2F20044C4F201000F2120604FF48D
:10514000800060600020A060C4E9031060614FF03F
:105150008061A1614FF0A041C4E90710C4E90900D2
:10516000E06204F134002821FBF7E1F92046FDF765
:10517000DFFD002808BF10BDBDE81040FBF75CBB99
:1051800080B540F6B46047F60001C2F20040C4F2B8
:1051900000010C2201604FF4E13141600021C0E9BF
:1051A00002110161C0E90521C0E90711C0E9091137
:1051B000FEF706FD08B1FBF73FFB40F6B4600021A7
:1051C000C2F20040FEF7B4FA08B1FBF735FB40F637
:1051D000B4600021C2F20040FEF762FA08B1FBF7AA
:1051E0002BFB40F6B460C2F20040FEF739FA00280B
:1051F00008BF80BDBDE88040FBF71EBB000000007B
:1052000080B540F6105041F20001C2F20040C4F2F5
:1052100001010C2201604FF4E13141600021C0E93D
:1052200002110161C0E90521C0E90711C0E90911B6
:10523000FEF7C6FC08B1FBF7FFFA40F6105000215C
:10524000C2F20040FEF774FA08B1FBF7F5FA40F637
:1052500010500021C2F20040FEF722FA08B1FBF71D
:10526000EBFA40F61050C2F20040FEF7F9F90028C0
:1052700008BF80BDBDE88040FBF7DEBA000000003B
:1052800080B540F69C5044F20041C2F20040C4F2A6
:1052900000010C2201604FF4E13141600021C0E9BE
:1052A00002110161C0E90521C0E90711C0E9091136
:1052B000FEF786FC08B1FBF7BFFA40F69C500021D0
:1052C000C2F20040FEF734FA08B1FBF7B5FA40F637
:1052D0009C500021C2F20040FEF7E2F908B1FBF752
:1052E000ABFA40F69C50C2F20040FEF7B9F9002834
:1052F00008BF80BDBDE88040FBF79EBA00000000FB
:1053000080B540F6286044F60001C2F20040C4F2C5
:1053100000010C2201604FF4E13141600021C0E93D
:1053200002110161C0E90521C0E90711C0E90911B5
:10533000FEF746FC08B1FBF77FFA40F62860002133
:10534000C2F20040FEF7F4F908B1FBF775FA40F637
:1053500028600021C2F20040FEF7A2F908B1FBF775
:105360006BFA40F62860C2F20040FEF779F9002897
:1053700008BF80BDBDE88040FBF75EBA00000000BA
:10538000FEE7000000000000FEE700000000000053
:105390007047000000000000F0B581B044F22C47D7
:1053A000C5F6020757F8042C02F00302032A03D1C2
:1053B000012001B0F0BD00BF054657F82C0C0C468B
:1053C00020F0806047F82C0CFBF726FF064600BF54
:1053D00057F82C0C000105D5FBF71EFF801B022897
:1053E000F6D964E057F8040CEE6895E80E0020F456
:1053F0007C30012C40EA0130A2F101016FF35F2102
:105400004FF47E4202EB432247F8040C92B24FF075
:10541000FE4302EB01004FF4FE012A6901EB064155
:1054200001F4FE0103EB0262084402F0FE4108446D
:10543000F8603868696920F0C00040EA010038600F
:105440003868A96920F0200040EA01003860386817
:105450004FF6F87120F0100038603869EA6920EAE8
:1054600001004FF4001140EAC2003861386808BFFB
:105470004FF4801140F01000002C386008BF4FF44A
:10548000002138680843386057F82C0C40F08060E1
:1054900047F82C0CFBF7C0FE044600BF57F82C0C55
:1054A000000107D4FBF7B8FE001B0328F6D3032046
:1054B00001B0F0BD002001B0F0BD00000000000010
:1054C000F0B581B044F22C47C5F6020757F8042C1A
:1054D00002F00302032A03D1012001B0F0BD00BF96
:1054E000054657F82C0C0C4620F0805047F82C0C41
:1054F000FBF792FE064600BF57F82C0C800005D53E
:10550000FBF78AFE801B0228F6D964E057F8040CEA
:10551000EE6895E80E0020F07C70012C40EA015006
:10552000A2F101016FF35F214FF47E4202EB4322AF
:1055300047F8040C92B24FF0FE4302EB01004FF427
:10554000FE012A6901EB064101F4FE0103EB026250
:10555000084402F0FE41084478613868696920F423
:10556000406040EA010038603868A96920F40070A2
:1055700040EA0100386038684FF6F87120F4807016
:105580003860B869EA6920EA01004FF0807140EAAA
:10559000C200B861386808BF4FF4000140F4807061
:1055A000002C386008BF4FF4800138680843386029
:1055B00057F82C0C40F0805047F82C0CFBF72CFED1
:1055C000044600BF57F82C0C800007D4FBF724FEDC
:1055D000001B0328F6D3032001B0F0BD002001B06A
:1055E000F0BD000000000000012803D9002080B2B7
:1055F000704700BF00EB400040F28801C2F200415A
:1056000001EB8000EFF3108172B6B0F86010B0F8D3
:105610006200081A38BF00F5007062B680B27047A9
:10562000012888BF704700EB400040F28801C2F2B9
:10563000004101EB8000EFF3108172B60021A0F869
:105640006010A0F8621062B6704700000000000011
:1056500070B540F288060024C2F20046C5F6020486
:105660004FF40061002220460025A6F86050A6F8FD
:105670006250A6F86450A6F8665086F86A50356005
:10568000B5603561B561B5633564B5643562B562E1
:105690003563FBF7B1FD002000F0FEFCA6F86C506E
:1056A0004FF48061A6F86E500022A6F87050A6F85C
:1056B000725086F876507560F5607561F561F56336
:1056C0007564F5647562F562756304F54065284696
:1056D000FBF792FD012000F0DFFC4FF40061002297
:1056E0002046FBF789FD40F6105006F16801C2F232
:1056F00000400122FEF750FB30634FF4806100222E
:105700002846FBF779FD40F6286006F17401C2F2E5
:1057100000400122FEF740FB706370BD00000000F6
:105720002DE9F04F81B000EB400140F28802C2F257
:10573000004202EB810191F86A201AB101B0BDE884
:10574000F08F00BF01F16007B988FA8891420DD14E
:1057500047F2CC510022C0F6000101EB0010018994
:10576000406801B0BDE8F04FFBF746BD41F254423E
:10577000F988C2F200423C4602EB40224FF000089A
:1057800047F2CC590501515CC0F6000904F8091F25
:105790004FF0010BF98801318AB2B8EB522F18BFD4
:1057A000002109EB0012F980B2F808A05668012226
:1057B00030465146FBF720FD84F801B0012259F82C
:1057C00005002146FEF72CFC0028B7D00022304609
:1057D000514687F80A8001B0BDE8F04FFBF70CBDD9
:1057E000012888BF704780B540F200114FF08A0E43
:1057F000C2F2004140F6407C01EB8002002341F8F8
:105800002030C2F2004C00FB0EF1936010FB0EC082
:1058100013619361136293620CF80130A0F8883031
:10582000BDE88040704700002DE9F04F83B00128AB
:1058300004D90227384603B0BDE8F08F002900F0F4
:10584000B18004460D46FFF7CFFE002800F0A4808B
:1058500040F640708A210195C2F2004014FB010518
:1058600040F200190DF10B06C2F2004905F1010BDF
:1058700040F601784FF0000A14E000BFB5F8880048
:105880009DF80B100BF80010B5F888000130A5F852
:10589000880081B2872980F08B802046FFF7A4FE24
:1058A000002879D0012220463146012700F008FA6D
:1058B0000028BFD059F82400013049F82400287886
:1058C0000228DBD0012807D090B99DF80B000F28E3
:1058D0003AD1A5F80080E0E79DF80B70F02F0DD1CC
:1058E000F020A8700220A5F888002870D5E700BF36
:1058F00085F800A0A5F888A0CFE700BF09EB8408D1
:10590000D8F820000130C8F82000D8F8180001307D
:10591000C8F8180059F8240080B3D8F8180044F2E9
:105920004021C0F20F0159F82420A0FB01010023FF
:10593000FAF738FD0F2FC8F8280024D140F6017877
:10594000A5F80080A9E700BF09EB8407386A013099
:105950003862B8690130B86159F82400C0B1B8693B
:1059600044F24021C0F20F0159F82420A0FB0101AC
:105970000023FAF717FDB8628FE700BF00200F2F52
:10598000C8F82800DAD085F800A040F60178B1E721
:105990000020B86281E700BF0127384603B0BDE8A8
:1059A000F08F00BF0327384603B0BDE8F08F00BF7B
:1059B0009BF800000F287DD1A878F0287AD100202C
:1059C000002229182C308428CB780F794E791A447C
:1059D0008B793A44CF7932441A440B7A3A444F7A5D
:1059E0001A448B7A3A44CF7A1A440B7B3A444F7B61
:1059F0001A448B7B3A44CF7B1A440B7C3A444F7C4D
:105A00001A448B7C3A44CF7C1A440B7D3A444F7D38
:105A10001A448B7D3A44CF7D1A440B7E3A444F7E24
:105A20001A448B7E3A44CF7E1A440B7F3A444F7F10
:105A30001A448B7F3A44CF7F1A4491F820303A447D
:105A400091F821701A4491F822303A4491F8237069
:105A50001A4491F824303A4491F825701A4491F888
:105A600026303A4491F827701A4491F828303A4485
:105A700091F829701A4491F82A303A4491F82B7021
:105A80001A4491F82C303A441A4491F82D3091F888
:105A90002E101A440A4494D1D1B295F8870081425D
:105AA00024D128790527A92822DC28B3552823D01A
:105AB00001E000BF042709EB8400016901310161A5
:105AC00081698731816159F82400D0B309EB8400E2
:105AD00044F24021C0F20F010023806959F82420CC
